{
  "contractName": "CreacionCadena",
  "abi": [
    {
      "anonymous": false,
      "inputs": [
        {
          "indexed": true,
          "internalType": "uint256",
          "name": "id",
          "type": "uint256"
        },
        {
          "indexed": false,
          "internalType": "string",
          "name": "nombreProducto",
          "type": "string"
        },
        {
          "indexed": false,
          "internalType": "uint256",
          "name": "tipoProductoId",
          "type": "uint256"
        },
        {
          "indexed": true,
          "internalType": "address",
          "name": "fabricante",
          "type": "address"
        },
        {
          "indexed": true,
          "internalType": "address",
          "name": "puntoVenta",
          "type": "address"
        },
        {
          "indexed": false,
          "internalType": "uint256",
          "name": "cantidad",
          "type": "uint256"
        },
        {
          "indexed": false,
          "internalType": "uint256",
          "name": "monto",
          "type": "uint256"
        },
        {
          "indexed": false,
          "internalType": "int16",
          "name": "temperaturaMinima",
          "type": "int16"
        },
        {
          "indexed": false,
          "internalType": "int16",
          "name": "temperaturaMaxima",
          "type": "int16"
        },
        {
          "indexed": false,
          "internalType": "uint256",
          "name": "diasCaducidad",
          "type": "uint256"
        }
      ],
      "name": "AcuerdoCreado",
      "type": "event"
    },
    {
      "anonymous": false,
      "inputs": [
        {
          "indexed": true,
          "internalType": "uint256",
          "name": "id",
          "type": "uint256"
        },
        {
          "indexed": false,
          "internalType": "string",
          "name": "nombreProducto",
          "type": "string"
        },
        {
          "indexed": false,
          "internalType": "uint256",
          "name": "tipoProductoId",
          "type": "uint256"
        },
        {
          "indexed": true,
          "internalType": "address",
          "name": "fabricante",
          "type": "address"
        },
        {
          "indexed": true,
          "internalType": "address",
          "name": "puntoVenta",
          "type": "address"
        },
        {
          "indexed": false,
          "internalType": "uint256",
          "name": "cantidad",
          "type": "uint256"
        },
        {
          "indexed": false,
          "internalType": "uint256",
          "name": "monto",
          "type": "uint256"
        },
        {
          "indexed": false,
          "internalType": "int16",
          "name": "temperaturaMinima",
          "type": "int16"
        },
        {
          "indexed": false,
          "internalType": "int16",
          "name": "temperaturaMaxima",
          "type": "int16"
        }
      ],
      "name": "AcuerdoFabVentaFirmado",
      "type": "event"
    },
    {
      "anonymous": false,
      "inputs": [
        {
          "indexed": true,
          "internalType": "uint256",
          "name": "acuerdoTransFabId",
          "type": "uint256"
        },
        {
          "indexed": false,
          "internalType": "uint256[]",
          "name": "acuerdoFabVentaId",
          "type": "uint256[]"
        },
        {
          "indexed": true,
          "internalType": "address",
          "name": "fabricante",
          "type": "address"
        },
        {
          "indexed": true,
          "internalType": "address",
          "name": "transportista",
          "type": "address"
        },
        {
          "indexed": false,
          "internalType": "uint256",
          "name": "monto",
          "type": "uint256"
        }
      ],
      "name": "AcuerdoTransFabFirmado",
      "type": "event"
    },
    {
      "anonymous": false,
      "inputs": [
        {
          "indexed": true,
          "internalType": "uint256",
          "name": "acuerdoId",
          "type": "uint256"
        },
        {
          "indexed": true,
          "internalType": "uint256",
          "name": "productoId",
          "type": "uint256"
        },
        {
          "indexed": false,
          "internalType": "string",
          "name": "nombreProducto",
          "type": "string"
        },
        {
          "indexed": false,
          "internalType": "int16",
          "name": "temperaturaMinima",
          "type": "int16"
        },
        {
          "indexed": false,
          "internalType": "int16",
          "name": "temperaturaMaxima",
          "type": "int16"
        }
      ],
      "name": "ProductoAgregado",
      "type": "event"
    },
    {
      "anonymous": false,
      "inputs": [
        {
          "indexed": true,
          "internalType": "uint256",
          "name": "acuerdoId",
          "type": "uint256"
        },
        {
          "indexed": true,
          "internalType": "uint256",
          "name": "productoId",
          "type": "uint256"
        },
        {
          "indexed": true,
          "internalType": "address",
          "name": "transportista",
          "type": "address"
        }
      ],
      "name": "TransportistaDelProductoActualizado",
      "type": "event"
    },
    {
      "inputs": [
        {
          "internalType": "uint256",
          "name": "",
          "type": "uint256"
        }
      ],
      "name": "acuerdos",
      "outputs": [
        {
          "internalType": "uint256",
          "name": "id",
          "type": "uint256"
        },
        {
          "internalType": "string",
          "name": "nombreProducto",
          "type": "string"
        },
        {
          "internalType": "uint256",
          "name": "tipoProductoId",
          "type": "uint256"
        },
        {
          "internalType": "address",
          "name": "fabricante",
          "type": "address"
        },
        {
          "internalType": "address",
          "name": "puntoVenta",
          "type": "address"
        },
        {
          "internalType": "uint256",
          "name": "cantidad",
          "type": "uint256"
        },
        {
          "internalType": "uint256",
          "name": "monto",
          "type": "uint256"
        },
        {
          "internalType": "int16",
          "name": "temperaturaMinima",
          "type": "int16"
        },
        {
          "internalType": "int16",
          "name": "temperaturaMaxima",
          "type": "int16"
        },
        {
          "internalType": "uint256",
          "name": "diasCaducidad",
          "type": "uint256"
        },
        {
          "internalType": "bool",
          "name": "firmadoFabricante",
          "type": "bool"
        },
        {
          "internalType": "bool",
          "name": "firmadoPuntoVenta",
          "type": "bool"
        }
      ],
      "stateMutability": "view",
      "type": "function",
      "constant": true
    },
    {
      "inputs": [
        {
          "internalType": "uint256",
          "name": "",
          "type": "uint256"
        }
      ],
      "name": "acuerdos2",
      "outputs": [
        {
          "internalType": "uint256",
          "name": "acuerdoTransFabId",
          "type": "uint256"
        },
        {
          "internalType": "address",
          "name": "fabricante",
          "type": "address"
        },
        {
          "internalType": "address",
          "name": "transportista",
          "type": "address"
        },
        {
          "internalType": "uint256",
          "name": "monto",
          "type": "uint256"
        },
        {
          "internalType": "bool",
          "name": "firmadoFabricante",
          "type": "bool"
        },
        {
          "internalType": "bool",
          "name": "firmadoTransportista",
          "type": "bool"
        }
      ],
      "stateMutability": "view",
      "type": "function",
      "constant": true
    },
    {
      "inputs": [],
      "name": "contadorAcuerdos",
      "outputs": [
        {
          "internalType": "uint256",
          "name": "",
          "type": "uint256"
        }
      ],
      "stateMutability": "view",
      "type": "function",
      "constant": true
    },
    {
      "inputs": [],
      "name": "contadorAcuerdos2",
      "outputs": [
        {
          "internalType": "uint256",
          "name": "",
          "type": "uint256"
        }
      ],
      "stateMutability": "view",
      "type": "function",
      "constant": true
    },
    {
      "inputs": [
        {
          "internalType": "uint256",
          "name": "",
          "type": "uint256"
        },
        {
          "internalType": "uint256",
          "name": "",
          "type": "uint256"
        }
      ],
      "name": "productosDelAcuerdo",
      "outputs": [
        {
          "internalType": "uint256",
          "name": "id",
          "type": "uint256"
        },
        {
          "internalType": "int16",
          "name": "ultimaTemperatura",
          "type": "int16"
        },
        {
          "internalType": "enum CreacionCadena.EstadoDelProducto",
          "name": "estado",
          "type": "uint8"
        },
        {
          "internalType": "address",
          "name": "fabricante",
          "type": "address"
        },
        {
          "internalType": "address",
          "name": "puntoVenta",
          "type": "address"
        },
        {
          "internalType": "address",
          "name": "transportista",
          "type": "address"
        },
        {
          "internalType": "uint256",
          "name": "fechaFabricacion",
          "type": "uint256"
        }
      ],
      "stateMutability": "view",
      "type": "function",
      "constant": true
    },
    {
      "inputs": [
        {
          "internalType": "string",
          "name": "_nombreProducto",
          "type": "string"
        },
        {
          "internalType": "uint256",
          "name": "_productoId",
          "type": "uint256"
        },
        {
          "internalType": "address",
          "name": "_puntoVenta",
          "type": "address"
        },
        {
          "internalType": "uint256",
          "name": "_cantidad",
          "type": "uint256"
        },
        {
          "internalType": "uint256",
          "name": "_monto",
          "type": "uint256"
        },
        {
          "internalType": "int16",
          "name": "_temperaturaMinima",
          "type": "int16"
        },
        {
          "internalType": "int16",
          "name": "_temperaturaMaxima",
          "type": "int16"
        },
        {
          "internalType": "uint256",
          "name": "_diasCaducidad",
          "type": "uint256"
        }
      ],
      "name": "crearAcuerdoPuntoVenta",
      "outputs": [],
      "stateMutability": "nonpayable",
      "type": "function"
    },
    {
      "inputs": [
        {
          "internalType": "uint256[]",
          "name": "_acuerdoFabVentaId",
          "type": "uint256[]"
        },
        {
          "internalType": "address",
          "name": "_transportista",
          "type": "address"
        },
        {
          "internalType": "uint256",
          "name": "_monto",
          "type": "uint256"
        }
      ],
      "name": "crearAcuerdoTransportista",
      "outputs": [],
      "stateMutability": "nonpayable",
      "type": "function"
    },
    {
      "inputs": [
        {
          "internalType": "uint256",
          "name": "_acuerdoId",
          "type": "uint256"
        }
      ],
      "name": "firmarAcuerdoFabVenta",
      "outputs": [],
      "stateMutability": "payable",
      "type": "function",
      "payable": true
    },
    {
      "inputs": [
        {
          "internalType": "uint256",
          "name": "_acuerdoId",
          "type": "uint256"
        }
      ],
      "name": "acuerdoFabVentaAsignado",
      "outputs": [
        {
          "internalType": "bool",
          "name": "",
          "type": "bool"
        }
      ],
      "stateMutability": "view",
      "type": "function",
      "constant": true
    },
    {
      "inputs": [
        {
          "internalType": "uint256",
          "name": "_acuerdoTransFabId",
          "type": "uint256"
        }
      ],
      "name": "firmarAcuerdoTransFab",
      "outputs": [],
      "stateMutability": "payable",
      "type": "function",
      "payable": true
    },
    {
      "inputs": [
        {
          "internalType": "uint256",
          "name": "_acuerdoId",
          "type": "uint256"
        }
      ],
      "name": "getAcuerdo",
      "outputs": [
        {
          "components": [
            {
              "internalType": "uint256",
              "name": "id",
              "type": "uint256"
            },
            {
              "internalType": "string",
              "name": "nombreProducto",
              "type": "string"
            },
            {
              "internalType": "uint256",
              "name": "tipoProductoId",
              "type": "uint256"
            },
            {
              "internalType": "address",
              "name": "fabricante",
              "type": "address"
            },
            {
              "internalType": "address",
              "name": "puntoVenta",
              "type": "address"
            },
            {
              "internalType": "uint256",
              "name": "cantidad",
              "type": "uint256"
            },
            {
              "internalType": "uint256",
              "name": "monto",
              "type": "uint256"
            },
            {
              "internalType": "int16",
              "name": "temperaturaMinima",
              "type": "int16"
            },
            {
              "internalType": "int16",
              "name": "temperaturaMaxima",
              "type": "int16"
            },
            {
              "internalType": "uint256",
              "name": "diasCaducidad",
              "type": "uint256"
            },
            {
              "internalType": "bool",
              "name": "firmadoFabricante",
              "type": "bool"
            },
            {
              "internalType": "bool",
              "name": "firmadoPuntoVenta",
              "type": "bool"
            }
          ],
          "internalType": "struct CreacionCadena.AcuerdoFabVenta",
          "name": "",
          "type": "tuple"
        }
      ],
      "stateMutability": "view",
      "type": "function",
      "constant": true
    },
    {
      "inputs": [
        {
          "internalType": "uint256",
          "name": "_acuerdoTransFabId",
          "type": "uint256"
        }
      ],
      "name": "getAcuerdoTransFab",
      "outputs": [
        {
          "components": [
            {
              "internalType": "uint256",
              "name": "acuerdoTransFabId",
              "type": "uint256"
            },
            {
              "internalType": "uint256[]",
              "name": "acuerdoFabVentaId",
              "type": "uint256[]"
            },
            {
              "internalType": "address",
              "name": "fabricante",
              "type": "address"
            },
            {
              "internalType": "address",
              "name": "transportista",
              "type": "address"
            },
            {
              "internalType": "uint256",
              "name": "monto",
              "type": "uint256"
            },
            {
              "internalType": "bool",
              "name": "firmadoFabricante",
              "type": "bool"
            },
            {
              "internalType": "bool",
              "name": "firmadoTransportista",
              "type": "bool"
            }
          ],
          "internalType": "struct CreacionCadena.AcuerdoTransFab",
          "name": "",
          "type": "tuple"
        }
      ],
      "stateMutability": "view",
      "type": "function",
      "constant": true
    },
    {
      "inputs": [
        {
          "internalType": "uint256",
          "name": "_idAcuerdoTransFab",
          "type": "uint256"
        }
      ],
      "name": "verAcuerdosAsignados",
      "outputs": [
        {
          "internalType": "uint256[]",
          "name": "",
          "type": "uint256[]"
        }
      ],
      "stateMutability": "view",
      "type": "function",
      "constant": true
    },
    {
      "inputs": [
        {
          "internalType": "uint256",
          "name": "_acuerdoId",
          "type": "uint256"
        }
      ],
      "name": "getProductosDelAcuerdo",
      "outputs": [
        {
          "components": [
            {
              "internalType": "uint256",
              "name": "id",
              "type": "uint256"
            },
            {
              "internalType": "int16",
              "name": "ultimaTemperatura",
              "type": "int16"
            },
            {
              "internalType": "enum CreacionCadena.EstadoDelProducto",
              "name": "estado",
              "type": "uint8"
            },
            {
              "internalType": "address",
              "name": "fabricante",
              "type": "address"
            },
            {
              "internalType": "address",
              "name": "puntoVenta",
              "type": "address"
            },
            {
              "internalType": "address",
              "name": "transportista",
              "type": "address"
            },
            {
              "internalType": "uint256",
              "name": "fechaFabricacion",
              "type": "uint256"
            }
          ],
          "internalType": "struct CreacionCadena.Producto[]",
          "name": "",
          "type": "tuple[]"
        }
      ],
      "stateMutability": "view",
      "type": "function",
      "constant": true
    },
    {
      "inputs": [
        {
          "internalType": "uint256",
          "name": "_acuerdoId",
          "type": "uint256"
        },
        {
          "internalType": "uint256",
          "name": "_productoId",
          "type": "uint256"
        }
      ],
      "name": "getProductoDeUnAcuerdo",
      "outputs": [
        {
          "components": [
            {
              "internalType": "uint256",
              "name": "id",
              "type": "uint256"
            },
            {
              "internalType": "int16",
              "name": "ultimaTemperatura",
              "type": "int16"
            },
            {
              "internalType": "enum CreacionCadena.EstadoDelProducto",
              "name": "estado",
              "type": "uint8"
            },
            {
              "internalType": "address",
              "name": "fabricante",
              "type": "address"
            },
            {
              "internalType": "address",
              "name": "puntoVenta",
              "type": "address"
            },
            {
              "internalType": "address",
              "name": "transportista",
              "type": "address"
            },
            {
              "internalType": "uint256",
              "name": "fechaFabricacion",
              "type": "uint256"
            }
          ],
          "internalType": "struct CreacionCadena.Producto",
          "name": "",
          "type": "tuple"
        }
      ],
      "stateMutability": "view",
      "type": "function",
      "constant": true
    },
    {
      "inputs": [
        {
          "internalType": "uint256",
          "name": "_acuerdoId",
          "type": "uint256"
        },
        {
          "internalType": "uint256",
          "name": "_productoId",
          "type": "uint256"
        },
        {
          "internalType": "int16",
          "name": "_nuevaTemperatura",
          "type": "int16"
        }
      ],
      "name": "setTemperatura",
      "outputs": [],
      "stateMutability": "nonpayable",
      "type": "function"
    },
    {
      "inputs": [
        {
          "internalType": "uint256",
          "name": "_acuerdoId",
          "type": "uint256"
        },
        {
          "internalType": "uint256",
          "name": "_productoId",
          "type": "uint256"
        },
        {
          "internalType": "uint8",
          "name": "_nuevoEstado",
          "type": "uint8"
        }
      ],
      "name": "setEstado",
      "outputs": [],
      "stateMutability": "nonpayable",
      "type": "function"
    },
    {
      "inputs": [],
      "name": "saberAcuerdosFabVenta",
      "outputs": [
        {
          "internalType": "uint256[]",
          "name": "",
          "type": "uint256[]"
        }
      ],
      "stateMutability": "view",
      "type": "function",
      "constant": true
    },
    {
      "inputs": [],
      "name": "saberAcuerdosTransFab",
      "outputs": [
        {
          "internalType": "uint256[]",
          "name": "",
          "type": "uint256[]"
        }
      ],
      "stateMutability": "view",
      "type": "function",
      "constant": true
    }
  ],
  "bytecode": "0x608060405234801561001057600080fd5b506156a480620000216000396000f3fe6080604052600436106101145760003560e01c80635c9d2b26116100a0578063c0ee66eb11610064578063c0ee66eb146103f2578063c408db2a1461041d578063c921ca0514610446578063ce18a10414610483578063f25684a31461049f57610114565b80635c9d2b26146102f75780636b5676301461031357806384c8d5021461033e5780638e6dd88414610386578063a98dfcbc146103c957610114565b80633572d533116100e75780633572d533146101e55780633d28df83146102275780633e09d98c146102525780634d175e731461028f5780635095bc5c146102ba57610114565b80630e9749a61461011957806328a6f4b21461014257806329f628141461016b5780632f8edc7a146101a8575b600080fd5b34801561012557600080fd5b50610140600480360381019061013b91906138dc565b6104dc565b005b34801561014e57600080fd5b5061016960048036038101906101649190613ad3565b610526565b005b34801561017757600080fd5b50610192600480360381019061018d9190613ba5565b610540565b60405161019f9190613bed565b60405180910390f35b3480156101b457600080fd5b506101cf60048036038101906101ca9190613ba5565b6105c1565b6040516101dc9190613d80565b60405180910390f35b3480156101f157600080fd5b5061020c60048036038101906102079190613ba5565b61078d565b60405161021e96959493929190613dc0565b60405180910390f35b34801561023357600080fd5b5061023c610823565b6040516102499190613e21565b60405180910390f35b34801561025e57600080fd5b5061027960048036038101906102749190613ba5565b610829565b6040516102869190613fff565b60405180910390f35b34801561029b57600080fd5b506102a4610cb4565b6040516102b19190614090565b60405180910390f35b3480156102c657600080fd5b506102e160048036038101906102dc91906140b2565b610e9d565b6040516102ee9190614180565b60405180910390f35b610311600480360381019061030c9190613ba5565b6110e7565b005b34801561031f57600080fd5b506103286119ca565b6040516103359190613e21565b60405180910390f35b34801561034a57600080fd5b5061036560048036038101906103609190613ba5565b6119d0565b60405161037d9c9b9a99989796959493929190614232565b60405180910390f35b34801561039257600080fd5b506103ad60048036038101906103a891906140b2565b611b2c565b6040516103c09796959493929190614302565b60405180910390f35b3480156103d557600080fd5b506103f060048036038101906103eb9190614439565b611bf5565b005b3480156103fe57600080fd5b50610407611c05565b6040516104149190614090565b60405180910390f35b34801561042957600080fd5b50610444600480360381019061043f91906144e1565b611df0565b005b34801561045257600080fd5b5061046d60048036038101906104689190613ba5565b611f73565b60405161047a9190614090565b60405180910390f35b61049d60048036038101906104989190613ba5565b6120f1565b005b3480156104ab57600080fd5b506104c660048036038101906104c19190613ba5565b61296d565b6040516104d39190614682565b60405180910390f35b8060026000858152602001908152602001600020600084815260200190815260200160002060010160006101000a81548161ffff021916908360010b61ffff160217905550505050565b6105368888888888888888612bcb565b5050505050505050565b60008073ffffffffffffffffffffffffffffffffffffffff166002600084815260200190815260200160002060006001815260200190815260200160002060030160009054906101000a900473ffffffffffffffffffffffffffffffffffffffff1673ffffffffffffffffffffffffffffffffffffffff1614159050919050565b6105c96135d1565b6000821180156105db57506004548211155b61061a576040517f08c379a0000000000000000000000000000000000000000000000000000000008152600401610611906146f0565b60405180910390fd5b600160008381526020019081526020016000206040518060e0016040529081600082015481526020016001820180548060200260200160405190810160405280929190818152602001828054801561069157602002820191906000526020600020905b81548152602001906001019080831161067d575b505050505081526020016002820160009054906101000a900473ffffffffffffffffffffffffffffffffffffffff1673ffffffffffffffffffffffffffffffffffffffff1673ffffffffffffffffffffffffffffffffffffffff1681526020016003820160009054906101000a900473ffffffffffffffffffffffffffffffffffffffff1673ffffffffffffffffffffffffffffffffffffffff1673ffffffffffffffffffffffffffffffffffffffff168152602001600482015481526020016005820160009054906101000a900460ff161515151581526020016005820160019054906101000a900460ff1615151515815250509050919050565b60016020528060005260406000206000915090508060000154908060020160009054906101000a900473ffffffffffffffffffffffffffffffffffffffff16908060030160009054906101000a900473ffffffffffffffffffffffffffffffffffffffff16908060040154908060050160009054906101000a900460ff16908060050160019054906101000a900460ff16905086565b60035481565b6060600354821115610870576040517f08c379a00000000000000000000000000000000000000000000000000000000081526004016108679061475c565b60405180910390fd5b60008060008481526020019081526020016000206005015467ffffffffffffffff8111156108a1576108a061394a565b5b6040519080825280602002602001820160405280156108da57816020015b6108c761363e565b8152602001906001900390816108bf5790505b50905060005b60008085815260200190815260200160002060050154811015610caa5760026000858152602001908152602001600020600060018361091f91906147ab565b815260200190815260200160002060010160039054906101000a900473ffffffffffffffffffffffffffffffffffffffff1673ffffffffffffffffffffffffffffffffffffffff163373ffffffffffffffffffffffffffffffffffffffff161480610a0857506002600085815260200190815260200160002060006001836109a791906147ab565b815260200190815260200160002060030160009054906101000a900473ffffffffffffffffffffffffffffffffffffffff1673ffffffffffffffffffffffffffffffffffffffff163373ffffffffffffffffffffffffffffffffffffffff16145b80610a915750600260008581526020019081526020016000206000600183610a3091906147ab565b815260200190815260200160002060020160009054906101000a900473ffffffffffffffffffffffffffffffffffffffff1673ffffffffffffffffffffffffffffffffffffffff163373ffffffffffffffffffffffffffffffffffffffff16145b610ad0576040517f08c379a0000000000000000000000000000000000000000000000000000000008152600401610ac790614873565b60405180910390fd5b600260008581526020019081526020016000206000600183610af291906147ab565b81526020019081526020016000206040518060e0016040529081600082015481526020016001820160009054906101000a900460010b60010b60010b81526020016001820160029054906101000a900460ff166003811115610b5757610b56613e77565b5b6003811115610b6957610b68613e77565b5b81526020016001820160039054906101000a900473ffffffffffffffffffffffffffffffffffffffff1673ffffffffffffffffffffffffffffffffffffffff1673ffffffffffffffffffffffffffffffffffffffff1681526020016002820160009054906101000a900473ffffffffffffffffffffffffffffffffffffffff1673ffffffffffffffffffffffffffffffffffffffff1673ffffffffffffffffffffffffffffffffffffffff1681526020016003820160009054906101000a900473ffffffffffffffffffffffffffffffffffffffff1673ffffffffffffffffffffffffffffffffffffffff1673ffffffffffffffffffffffffffffffffffffffff168152602001600482015481525050828281518110610c8c57610c8b614893565b5b60200260200101819052508080610ca2906148c2565b9150506108e0565b5080915050919050565b606080600080600190505b6003548111610e94573373ffffffffffffffffffffffffffffffffffffffff1660008083815260200190815260200160002060030160009054906101000a900473ffffffffffffffffffffffffffffffffffffffff1673ffffffffffffffffffffffffffffffffffffffff161480610d9757503373ffffffffffffffffffffffffffffffffffffffff1660008083815260200190815260200160002060040160009054906101000a900473ffffffffffffffffffffffffffffffffffffffff1673ffffffffffffffffffffffffffffffffffffffff16145b15610e81576000600183610dab91906147ab565b67ffffffffffffffff811115610dc457610dc361394a565b5b604051908082528060200260200182016040528015610df25781602001602082028036833780820191505090505b50905060005b83811015610e4d57848181518110610e1357610e12614893565b5b6020026020010151828281518110610e2e57610e2d614893565b5b6020026020010181815250508080610e45906148c2565b915050610df8565b5081818481518110610e6257610e61614893565b5b6020026020010181815250508093508280610e7c906148c2565b935050505b8080610e8c906148c2565b915050610cbf565b50819250505090565b610ea561363e565b600354831115610eea576040517f08c379a0000000000000000000000000000000000000000000000000000000008152600401610ee19061475c565b60405180910390fd5b60008084815260200190815260200160002060050154821115610f42576040517f08c379a0000000000000000000000000000000000000000000000000000000008152600401610f3990614956565b60405180910390fd5b6002600084815260200190815260200160002060008381526020019081526020016000206040518060e0016040529081600082015481526020016001820160009054906101000a900460010b60010b60010b81526020016001820160029054906101000a900460ff166003811115610fbd57610fbc613e77565b5b6003811115610fcf57610fce613e77565b5b81526020016001820160039054906101000a900473ffffffffffffffffffffffffffffffffffffffff1673ffffffffffffffffffffffffffffffffffffffff1673ffffffffffffffffffffffffffffffffffffffff1681526020016002820160009054906101000a900473ffffffffffffffffffffffffffffffffffffffff1673ffffffffffffffffffffffffffffffffffffffff1673ffffffffffffffffffffffffffffffffffffffff1681526020016003820160009054906101000a900473ffffffffffffffffffffffffffffffffffffffff1673ffffffffffffffffffffffffffffffffffffffff1673ffffffffffffffffffffffffffffffffffffffff168152602001600482015481525050905092915050565b60035481111561112c576040517f08c379a00000000000000000000000000000000000000000000000000000000081526004016111239061475c565b60405180910390fd5b60008082815260200190815260200160002060030160009054906101000a900473ffffffffffffffffffffffffffffffffffffffff1673ffffffffffffffffffffffffffffffffffffffff163373ffffffffffffffffffffffffffffffffffffffff160361122a5760008082815260200190815260200160002060090160009054906101000a900460ff16156111f7576040517f08c379a00000000000000000000000000000000000000000000000000000000081526004016111ee906149c2565b60405180910390fd5b600160008083815260200190815260200160002060090160006101000a81548160ff0219169083151502179055506113c6565b60008082815260200190815260200160002060040160009054906101000a900473ffffffffffffffffffffffffffffffffffffffff1673ffffffffffffffffffffffffffffffffffffffff163373ffffffffffffffffffffffffffffffffffffffff160361138a5760008082815260200190815260200160002060090160009054906101000a900460ff166112f4576040517f08c379a00000000000000000000000000000000000000000000000000000000081526004016112eb90614a54565b60405180910390fd5b60008082815260200190815260200160002060090160019054906101000a900460ff1615611357576040517f08c379a000000000000000000000000000000000000000000000000000000000815260040161134e90614ac0565b60405180910390fd5b600160008083815260200190815260200160002060090160016101000a81548160ff0219169083151502179055506113c5565b6040517f08c379a00000000000000000000000000000000000000000000000000000000081526004016113bc90614b52565b60405180910390fd5b5b60008082815260200190815260200160002060090160009054906101000a900460ff168015611414575060008082815260200190815260200160002060090160019054906101000a900460ff165b156119c757600080828152602001908152602001600020600601543414611470576040517f08c379a000000000000000000000000000000000000000000000000000000000815260040161146790614bbe565b60405180910390fd5b60008082815260200190815260200160002060030160009054906101000a900473ffffffffffffffffffffffffffffffffffffffff1673ffffffffffffffffffffffffffffffffffffffff166108fc349081150290604051600060405180830381858888f193505050501580156114eb573d6000803e3d6000fd5b5060008082815260200190815260200160002060040160009054906101000a900473ffffffffffffffffffffffffffffffffffffffff1673ffffffffffffffffffffffffffffffffffffffff1660008083815260200190815260200160002060030160009054906101000a900473ffffffffffffffffffffffffffffffffffffffff1673ffffffffffffffffffffffffffffffffffffffff16827fcb99f71e6461302ded284c4af083609ab6346a9357720f510eb4a0dd14873fe76000808681526020019081526020016000206001016000808781526020019081526020016000206002015460008088815260200190815260200160002060050154600080898152602001908152602001600020600601546000808a815260200190815260200160002060070160009054906101000a900460010b6000808b815260200190815260200160002060070160029054906101000a900460010b60405161165596959493929190614cd3565b60405180910390a460005b600080838152602001908152602001600020600501548110156119c5576040518060e0016040528060018361169591906147ab565b81526020017ffffffffffffffffffffffffffffffffffffffffffffffffffffffffffffffc1960010b8152602001600060038111156116d7576116d6613e77565b5b815260200160008085815260200190815260200160002060030160009054906101000a900473ffffffffffffffffffffffffffffffffffffffff1673ffffffffffffffffffffffffffffffffffffffff16815260200160008085815260200190815260200160002060040160009054906101000a900473ffffffffffffffffffffffffffffffffffffffff1673ffffffffffffffffffffffffffffffffffffffff168152602001600073ffffffffffffffffffffffffffffffffffffffff168152602001428152506002600084815260200190815260200160002060006001846117c191906147ab565b81526020019081526020016000206000820151816000015560208201518160010160006101000a81548161ffff021916908360010b61ffff16021790555060408201518160010160026101000a81548160ff0219169083600381111561182a57611829613e77565b5b021790555060608201518160010160036101000a81548173ffffffffffffffffffffffffffffffffffffffff021916908373ffffffffffffffffffffffffffffffffffffffff16021790555060808201518160020160006101000a81548173ffffffffffffffffffffffffffffffffffffffff021916908373ffffffffffffffffffffffffffffffffffffffff16021790555060a08201518160030160006101000a81548173ffffffffffffffffffffffffffffffffffffffff021916908373ffffffffffffffffffffffffffffffffffffffff16021790555060c0820151816004015590505060018161191e91906147ab565b827fb45307fe48e74641189f91c9a9f74532920098beb642606057040f996b2270f560008086815260200190815260200160002060010160008087815260200190815260200160002060070160009054906101000a900460010b60008088815260200190815260200160002060070160029054906101000a900460010b6040516119aa93929190614d3b565b60405180910390a380806119bd906148c2565b915050611660565b505b50565b60045481565b60006020528060005260406000206000915090508060000154908060010180546119f990614c0d565b80601f0160208091040260200160405190810160405280929190818152602001828054611a2590614c0d565b8015611a725780601f10611a4757610100808354040283529160200191611a72565b820191906000526020600020905b815481529060010190602001808311611a5557829003601f168201915b5050505050908060020154908060030160009054906101000a900473ffffffffffffffffffffffffffffffffffffffff16908060040160009054906101000a900473ffffffffffffffffffffffffffffffffffffffff16908060050154908060060154908060070160009054906101000a900460010b908060070160029054906101000a900460010b908060080154908060090160009054906101000a900460ff16908060090160019054906101000a900460ff1690508c565b6002602052816000526040600020602052806000526040600020600091509150508060000154908060010160009054906101000a900460010b908060010160029054906101000a900460ff16908060010160039054906101000a900473ffffffffffffffffffffffffffffffffffffffff16908060020160009054906101000a900473ffffffffffffffffffffffffffffffffffffffff16908060030160009054906101000a900473ffffffffffffffffffffffffffffffffffffffff16908060040154905087565b611c00838383612eb4565b505050565b606080600080600190505b6004548111611de7573373ffffffffffffffffffffffffffffffffffffffff166001600083815260200190815260200160002060020160009054906101000a900473ffffffffffffffffffffffffffffffffffffffff1673ffffffffffffffffffffffffffffffffffffffff161480611cea57503373ffffffffffffffffffffffffffffffffffffffff166001600083815260200190815260200160002060030160009054906101000a900473ffffffffffffffffffffffffffffffffffffffff1673ffffffffffffffffffffffffffffffffffffffff16145b15611dd4576000600183611cfe91906147ab565b67ffffffffffffffff811115611d1757611d1661394a565b5b604051908082528060200260200182016040528015611d455781602001602082028036833780820191505090505b50905060005b83811015611da057848181518110611d6657611d65614893565b5b6020026020010151828281518110611d8157611d80614893565b5b6020026020010181815250508080611d98906148c2565b915050611d4b565b5081818481518110611db557611db4614893565b5b6020026020010181815250508093508280611dcf906148c2565b935050505b8080611ddf906148c2565b915050611c10565b50819250505090565b60008160ff1603611e5057600060026000858152602001908152602001600020600084815260200190815260200160002060010160026101000a81548160ff02191690836003811115611e4657611e45613e77565b5b0217905550611f6e565b60018160ff1603611eb057600160026000858152602001908152602001600020600084815260200190815260200160002060010160026101000a81548160ff02191690836003811115611ea657611ea5613e77565b5b0217905550611f6d565b60028160ff1603611f0f576002806000858152602001908152602001600020600084815260200190815260200160002060010160026101000a81548160ff02191690836003811115611f0557611f04613e77565b5b0217905550611f6c565b60038160ff1603611f6b57600360026000858152602001908152602001600020600084815260200190815260200160002060010160026101000a81548160ff02191690836003811115611f6557611f64613e77565b5b02179055505b5b5b5b505050565b60606001600083815260200190815260200160002060030160009054906101000a900473ffffffffffffffffffffffffffffffffffffffff1673ffffffffffffffffffffffffffffffffffffffff163373ffffffffffffffffffffffffffffffffffffffff16148061204657506001600083815260200190815260200160002060020160009054906101000a900473ffffffffffffffffffffffffffffffffffffffff1673ffffffffffffffffffffffffffffffffffffffff163373ffffffffffffffffffffffffffffffffffffffff16145b612085576040517f08c379a000000000000000000000000000000000000000000000000000000000815260040161207c90614e11565b60405180910390fd5b600160008381526020019081526020016000206001018054806020026020016040519081016040528092919081815260200182805480156120e557602002820191906000526020600020905b8154815260200190600101908083116120d1575b50505050509050919050565b600454811115612136576040517f08c379a000000000000000000000000000000000000000000000000000000000815260040161212d9061475c565b60405180910390fd5b60005b60016000838152602001908152602001600020600101805490508110156122455761219560016000848152602001908152602001600020600101828154811061218557612184614893565b5b9060005260206000200154610540565b156121d16001600085815260200190815260200160002060010183815481106121c1576121c0614893565b5b90600052602060002001546133b0565b6040516020016121e19190614f2b565b60405160208183030381529060405290612231576040517f08c379a00000000000000000000000000000000000000000000000000000000081526004016122289190614f58565b60405180910390fd5b50808061223d906148c2565b915050612139565b506001600082815260200190815260200160002060030160009054906101000a900473ffffffffffffffffffffffffffffffffffffffff1673ffffffffffffffffffffffffffffffffffffffff163373ffffffffffffffffffffffffffffffffffffffff1603612346576001600082815260200190815260200160002060050160019054906101000a900460ff1615612313576040517f08c379a000000000000000000000000000000000000000000000000000000000815260040161230a90614fc6565b60405180910390fd5b600180600083815260200190815260200160002060050160016101000a81548160ff0219169083151502179055506124e5565b6001600082815260200190815260200160002060020160009054906101000a900473ffffffffffffffffffffffffffffffffffffffff1673ffffffffffffffffffffffffffffffffffffffff163373ffffffffffffffffffffffffffffffffffffffff16036124a9576001600082815260200190815260200160002060050160019054906101000a900460ff16612412576040517f08c379a000000000000000000000000000000000000000000000000000000000815260040161240990615058565b60405180910390fd5b6001600082815260200190815260200160002060050160009054906101000a900460ff1615612476576040517f08c379a000000000000000000000000000000000000000000000000000000000815260040161246d906149c2565b60405180910390fd5b600180600083815260200190815260200160002060050160006101000a81548160ff0219169083151502179055506124e4565b6040517f08c379a00000000000000000000000000000000000000000000000000000000081526004016124db90614b52565b60405180910390fd5b5b6001600082815260200190815260200160002060050160009054906101000a900460ff16801561253557506001600082815260200190815260200160002060050160019054906101000a900460ff165b1561296a5760016000828152602001908152602001600020600401543414612592576040517f08c379a0000000000000000000000000000000000000000000000000000000008152600401612589906150ea565b60405180910390fd5b6001600082815260200190815260200160002060030160009054906101000a900473ffffffffffffffffffffffffffffffffffffffff1673ffffffffffffffffffffffffffffffffffffffff166108fc349081150290604051600060405180830381858888f1935050505015801561260e573d6000803e3d6000fd5b506001600082815260200190815260200160002060030160009054906101000a900473ffffffffffffffffffffffffffffffffffffffff1673ffffffffffffffffffffffffffffffffffffffff166001600083815260200190815260200160002060020160009054906101000a900473ffffffffffffffffffffffffffffffffffffffff1673ffffffffffffffffffffffffffffffffffffffff16827f160c9bd4fad654c28641f02fa719ecb53ef439f2cb8a7f1fbc10ca381b1aa08b6001600086815260200190815260200160002060010160016000878152602001908152602001600020600401546040516127069291906151e0565b60405180910390a460005b60016000838152602001908152602001600020600101805490508110156129685760005b6000806001600086815260200190815260200160002060010184815481106127605761275f614893565b5b9060005260206000200154815260200190815260200160002060050154811015612954576001600084815260200190815260200160002060030160009054906101000a900473ffffffffffffffffffffffffffffffffffffffff16600260008060006001600089815260200190815260200160002060010187815481106127ea576127e9614893565b5b90600052602060002001548152602001908152602001600020600001548152602001908152602001600020600060018461282491906147ab565b815260200190815260200160002060030160006101000a81548173ffffffffffffffffffffffffffffffffffffffff021916908373ffffffffffffffffffffffffffffffffffffffff1602179055506001600084815260200190815260200160002060030160009054906101000a900473ffffffffffffffffffffffffffffffffffffffff1673ffffffffffffffffffffffffffffffffffffffff166001826128cd91906147ab565b6000806001600088815260200190815260200160002060010186815481106128f8576128f7614893565b5b90600052602060002001548152602001908152602001600020600001547fa2dcb401d6e1bc2a6aae3570ccd48c9f147af0983bebe98ecf36ffce87961d8b60405160405180910390a4808061294c906148c2565b915050612735565b508080612960906148c2565b915050612711565b505b50565b6129756136d2565b60008211801561298757506003548211155b6129c6576040517f08c379a00000000000000000000000000000000000000000000000000000000081526004016129bd9061475c565b60405180910390fd5b60008083815260200190815260200160002060405180610180016040529081600082015481526020016001820180546129fe90614c0d565b80601f0160208091040260200160405190810160405280929190818152602001828054612a2a90614c0d565b8015612a775780601f10612a4c57610100808354040283529160200191612a77565b820191906000526020600020905b815481529060010190602001808311612a5a57829003601f168201915b50505050508152602001600282015481526020016003820160009054906101000a900473ffffffffffffffffffffffffffffffffffffffff1673ffffffffffffffffffffffffffffffffffffffff1673ffffffffffffffffffffffffffffffffffffffff1681526020016004820160009054906101000a900473ffffffffffffffffffffffffffffffffffffffff1673ffffffffffffffffffffffffffffffffffffffff1673ffffffffffffffffffffffffffffffffffffffff16815260200160058201548152602001600682015481526020016007820160009054906101000a900460010b60010b60010b81526020016007820160029054906101000a900460010b60010b60010b8152602001600882015481526020016009820160009054906101000a900460ff161515151581526020016009820160019054906101000a900460ff1615151515815250509050919050565b60008411612c0e576040517f08c379a0000000000000000000000000000000000000000000000000000000008152600401612c0590615282565b60405180910390fd5b60036000815480929190612c21906148c2565b919050555060405180610180016040528060035481526020018981526020018881526020013373ffffffffffffffffffffffffffffffffffffffff1681526020018773ffffffffffffffffffffffffffffffffffffffff1681526020018681526020018581526020018460010b81526020018360010b8152602001828152602001600015158152602001600015158152506000806003548152602001908152602001600020600082015181600001556020820151816001019080519060200190612cec929190613769565b506040820151816002015560608201518160030160006101000a81548173ffffffffffffffffffffffffffffffffffffffff021916908373ffffffffffffffffffffffffffffffffffffffff16021790555060808201518160040160006101000a81548173ffffffffffffffffffffffffffffffffffffffff021916908373ffffffffffffffffffffffffffffffffffffffff16021790555060a0820151816005015560c0820151816006015560e08201518160070160006101000a81548161ffff021916908360010b61ffff1602179055506101008201518160070160026101000a81548161ffff021916908360010b61ffff16021790555061012082015181600801556101408201518160090160006101000a81548160ff0219169083151502179055506101608201518160090160016101000a81548160ff0219169083151502179055509050508573ffffffffffffffffffffffffffffffffffffffff163373ffffffffffffffffffffffffffffffffffffffff166003547f675d694746dd5bc36f3c600b6acfb1d66e767c082f508cca0821ff7cdd24a6a68b8b8a8a8a8a8a604051612ea297969594939291906152a2565b60405180910390a45050505050505050565b60008111612ef7576040517f08c379a0000000000000000000000000000000000000000000000000000000008152600401612eee9061538a565b60405180910390fd5b6000835111612f3b576040517f08c379a0000000000000000000000000000000000000000000000000000000008152600401612f329061541c565b60405180910390fd5b60005b835181101561321457600354848281518110612f5d57612f5c614893565b5b60200260200101511115612f8a858381518110612f7d57612f7c614893565b5b60200260200101516133b0565b604051602001612f9a9190615488565b60405160208183030381529060405290612fea576040517f08c379a0000000000000000000000000000000000000000000000000000000008152600401612fe19190614f58565b60405180910390fd5b503373ffffffffffffffffffffffffffffffffffffffff1660008086848151811061301857613017614893565b5b6020026020010151815260200190815260200160002060030160009054906101000a900473ffffffffffffffffffffffffffffffffffffffff1673ffffffffffffffffffffffffffffffffffffffff161461308c85838151811061307f5761307e614893565b5b60200260200101516133b0565b60405160200161309c9190615573565b604051602081830303815290604052906130ec576040517f08c379a00000000000000000000000000000000000000000000000000000000081526004016130e39190614f58565b60405180910390fd5b506001151560008086848151811061310757613106614893565b5b6020026020010151815260200190815260200160002060090160019054906101000a900460ff16151514801561317d57506001151560008086848151811061315257613151614893565b5b6020026020010151815260200190815260200160002060090160009054906101000a900460ff161515145b6131a085838151811061319357613192614893565b5b60200260200101516133b0565b6040516020016131b09190615612565b60405160208183030381529060405290613200576040517f08c379a00000000000000000000000000000000000000000000000000000000081526004016131f79190614f58565b60405180910390fd5b50808061320c906148c2565b915050612f3e565b5060046000815480929190613228906148c2565b91905055506040518060e0016040528060045481526020018481526020013373ffffffffffffffffffffffffffffffffffffffff1681526020018373ffffffffffffffffffffffffffffffffffffffff168152602001828152602001600015158152602001600015158152506001600060045481526020019081526020016000206000820151816000015560208201518160010190805190602001906132cf9291906137ef565b5060408201518160020160006101000a81548173ffffffffffffffffffffffffffffffffffffffff021916908373ffffffffffffffffffffffffffffffffffffffff16021790555060608201518160030160006101000a81548173ffffffffffffffffffffffffffffffffffffffff021916908373ffffffffffffffffffffffffffffffffffffffff1602179055506080820151816004015560a08201518160050160006101000a81548160ff02191690831515021790555060c08201518160050160016101000a81548160ff021916908315150217905550905050505050565b6060600060016133bf8461347e565b01905060008167ffffffffffffffff8111156133de576133dd61394a565b5b6040519080825280601f01601f1916602001820160405280156134105781602001600182028036833780820191505090505b509050600082602001820190505b600115613473578080600190039150507f3031323334353637383961626364656600000000000000000000000000000000600a86061a8153600a85816134675761346661563f565b5b0494506000850361341e575b819350505050919050565b600080600090507a184f03e93ff9f4daa797ed6e38ed64bf6a1f01000000000000000083106134dc577a184f03e93ff9f4daa797ed6e38ed64bf6a1f01000000000000000083816134d2576134d161563f565b5b0492506040810190505b6d04ee2d6d415b85acef81000000008310613519576d04ee2d6d415b85acef8100000000838161350f5761350e61563f565b5b0492506020810190505b662386f26fc10000831061354857662386f26fc10000838161353e5761353d61563f565b5b0492506010810190505b6305f5e1008310613571576305f5e10083816135675761356661563f565b5b0492506008810190505b612710831061359657612710838161358c5761358b61563f565b5b0492506004810190505b606483106135b957606483816135af576135ae61563f565b5b0492506002810190505b600a83106135c8576001810190505b80915050919050565b6040518060e001604052806000815260200160608152602001600073ffffffffffffffffffffffffffffffffffffffff168152602001600073ffffffffffffffffffffffffffffffffffffffff168152602001600081526020016000151581526020016000151581525090565b6040518060e0016040528060008152602001600060010b81526020016000600381111561366e5761366d613e77565b5b8152602001600073ffffffffffffffffffffffffffffffffffffffff168152602001600073ffffffffffffffffffffffffffffffffffffffff168152602001600073ffffffffffffffffffffffffffffffffffffffff168152602001600081525090565b604051806101800160405280600081526020016060815260200160008152602001600073ffffffffffffffffffffffffffffffffffffffff168152602001600073ffffffffffffffffffffffffffffffffffffffff1681526020016000815260200160008152602001600060010b8152602001600060010b8152602001600081526020016000151581526020016000151581525090565b82805461377590614c0d565b90600052602060002090601f01602090048101928261379757600085556137de565b82601f106137b057805160ff19168380011785556137de565b828001600101855582156137de579182015b828111156137dd5782518255916020019190600101906137c2565b5b5090506137eb919061383c565b5090565b82805482825590600052602060002090810192821561382b579160200282015b8281111561382a57825182559160200191906001019061380f565b5b509050613838919061383c565b5090565b5b8082111561385557600081600090555060010161383d565b5090565b6000604051905090565b600080fd5b600080fd5b6000819050919050565b6138808161386d565b811461388b57600080fd5b50565b60008135905061389d81613877565b92915050565b60008160010b9050919050565b6138b9816138a3565b81146138c457600080fd5b50565b6000813590506138d6816138b0565b92915050565b6000806000606084860312156138f5576138f4613863565b5b60006139038682870161388e565b93505060206139148682870161388e565b9250506040613925868287016138c7565b9150509250925092565b600080fd5b600080fd5b6000601f19601f8301169050919050565b7f4e487b7100000000000000000000000000000000000000000000000000000000600052604160045260246000fd5b61398282613939565b810181811067ffffffffffffffff821117156139a1576139a061394a565b5b80604052505050565b60006139b4613859565b90506139c08282613979565b919050565b600067ffffffffffffffff8211156139e0576139df61394a565b5b6139e982613939565b9050602081019050919050565b82818337600083830152505050565b6000613a18613a13846139c5565b6139aa565b905082815260208101848484011115613a3457613a33613934565b5b613a3f8482856139f6565b509392505050565b600082601f830112613a5c57613a5b61392f565b5b8135613a6c848260208601613a05565b91505092915050565b600073ffffffffffffffffffffffffffffffffffffffff82169050919050565b6000613aa082613a75565b9050919050565b613ab081613a95565b8114613abb57600080fd5b50565b600081359050613acd81613aa7565b92915050565b600080600080600080600080610100898b031215613af457613af3613863565b5b600089013567ffffffffffffffff811115613b1257613b11613868565b5b613b1e8b828c01613a47565b9850506020613b2f8b828c0161388e565b9750506040613b408b828c01613abe565b9650506060613b518b828c0161388e565b9550506080613b628b828c0161388e565b94505060a0613b738b828c016138c7565b93505060c0613b848b828c016138c7565b92505060e0613b958b828c0161388e565b9150509295985092959890939650565b600060208284031215613bbb57613bba613863565b5b6000613bc98482850161388e565b91505092915050565b60008115159050919050565b613be781613bd2565b82525050565b6000602082019050613c026000830184613bde565b92915050565b613c118161386d565b82525050565b600081519050919050565b600082825260208201905092915050565b6000819050602082019050919050565b6000613c4f8383613c08565b60208301905092915050565b6000602082019050919050565b6000613c7382613c17565b613c7d8185613c22565b9350613c8883613c33565b8060005b83811015613cb9578151613ca08882613c43565b9750613cab83613c5b565b925050600181019050613c8c565b5085935050505092915050565b613ccf81613a95565b82525050565b613cde81613bd2565b82525050565b600060e083016000830151613cfc6000860182613c08565b5060208301518482036020860152613d148282613c68565b9150506040830151613d296040860182613cc6565b506060830151613d3c6060860182613cc6565b506080830151613d4f6080860182613c08565b5060a0830151613d6260a0860182613cd5565b5060c0830151613d7560c0860182613cd5565b508091505092915050565b60006020820190508181036000830152613d9a8184613ce4565b905092915050565b613dab8161386d565b82525050565b613dba81613a95565b82525050565b600060c082019050613dd56000830189613da2565b613de26020830188613db1565b613def6040830187613db1565b613dfc6060830186613da2565b613e096080830185613bde565b613e1660a0830184613bde565b979650505050505050565b6000602082019050613e366000830184613da2565b92915050565b600081519050919050565b600082825260208201905092915050565b6000819050602082019050919050565b613e71816138a3565b82525050565b7f4e487b7100000000000000000000000000000000000000000000000000000000600052602160045260246000fd5b60048110613eb757613eb6613e77565b5b50565b6000819050613ec882613ea6565b919050565b6000613ed882613eba565b9050919050565b613ee881613ecd565b82525050565b60e082016000820151613f046000850182613c08565b506020820151613f176020850182613e68565b506040820151613f2a6040850182613edf565b506060820151613f3d6060850182613cc6565b506080820151613f506080850182613cc6565b5060a0820151613f6360a0850182613cc6565b5060c0820151613f7660c0850182613c08565b50505050565b6000613f888383613eee565b60e08301905092915050565b6000602082019050919050565b6000613fac82613e3c565b613fb68185613e47565b9350613fc183613e58565b8060005b83811015613ff2578151613fd98882613f7c565b9750613fe483613f94565b925050600181019050613fc5565b5085935050505092915050565b600060208201905081810360008301526140198184613fa1565b905092915050565b600082825260208201905092915050565b600061403d82613c17565b6140478185614021565b935061405283613c33565b8060005b8381101561408357815161406a8882613c43565b975061407583613c5b565b925050600181019050614056565b5085935050505092915050565b600060208201905081810360008301526140aa8184614032565b905092915050565b600080604083850312156140c9576140c8613863565b5b60006140d78582860161388e565b92505060206140e88582860161388e565b9150509250929050565b60e0820160008201516141086000850182613c08565b50602082015161411b6020850182613e68565b50604082015161412e6040850182613edf565b5060608201516141416060850182613cc6565b5060808201516141546080850182613cc6565b5060a082015161416760a0850182613cc6565b5060c082015161417a60c0850182613c08565b50505050565b600060e08201905061419560008301846140f2565b92915050565b600081519050919050565b600082825260208201905092915050565b60005b838110156141d55780820151818401526020810190506141ba565b838111156141e4576000848401525b50505050565b60006141f58261419b565b6141ff81856141a6565b935061420f8185602086016141b7565b61421881613939565b840191505092915050565b61422c816138a3565b82525050565b600061018082019050614248600083018f613da2565b818103602083015261425a818e6141ea565b9050614269604083018d613da2565b614276606083018c613db1565b614283608083018b613db1565b61429060a083018a613da2565b61429d60c0830189613da2565b6142aa60e0830188614223565b6142b8610100830187614223565b6142c6610120830186613da2565b6142d4610140830185613bde565b6142e2610160830184613bde565b9d9c50505050505050505050505050565b6142fc81613ecd565b82525050565b600060e082019050614317600083018a613da2565b6143246020830189614223565b61433160408301886142f3565b61433e6060830187613db1565b61434b6080830186613db1565b61435860a0830185613db1565b61436560c0830184613da2565b98975050505050505050565b600067ffffffffffffffff82111561438c5761438b61394a565b5b602082029050602081019050919050565b600080fd5b60006143b56143b084614371565b6139aa565b905080838252602082019050602084028301858111156143d8576143d761439d565b5b835b8181101561440157806143ed888261388e565b8452602084019350506020810190506143da565b5050509392505050565b600082601f8301126144205761441f61392f565b5b81356144308482602086016143a2565b91505092915050565b60008060006060848603121561445257614451613863565b5b600084013567ffffffffffffffff8111156144705761446f613868565b5b61447c8682870161440b565b935050602061448d86828701613abe565b925050604061449e8682870161388e565b9150509250925092565b600060ff82169050919050565b6144be816144a8565b81146144c957600080fd5b50565b6000813590506144db816144b5565b92915050565b6000806000606084860312156144fa576144f9613863565b5b60006145088682870161388e565b93505060206145198682870161388e565b925050604061452a868287016144cc565b9150509250925092565b600082825260208201905092915050565b60006145508261419b565b61455a8185614534565b935061456a8185602086016141b7565b61457381613939565b840191505092915050565b6000610180830160008301516145976000860182613c08565b50602083015184820360208601526145af8282614545565b91505060408301516145c46040860182613c08565b5060608301516145d76060860182613cc6565b5060808301516145ea6080860182613cc6565b5060a08301516145fd60a0860182613c08565b5060c083015161461060c0860182613c08565b5060e083015161462360e0860182613e68565b50610100830151614638610100860182613e68565b5061012083015161464d610120860182613c08565b50610140830151614662610140860182613cd5565b50610160830151614677610160860182613cd5565b508091505092915050565b6000602082019050818103600083015261469c818461457e565b905092915050565b7f456c206163756572646f5472616e73466162206e6f2065786973746500000000600082015250565b60006146da601c836141a6565b91506146e5826146a4565b602082019050919050565b60006020820190508181036000830152614709816146cd565b9050919050565b7f456c206163756572646f206e6f20657869737465000000000000000000000000600082015250565b60006147466014836141a6565b915061475182614710565b602082019050919050565b6000602082019050818103600083015261477581614739565b9050919050565b7f4e487b7100000000000000000000000000000000000000000000000000000000600052601160045260246000fd5b60006147b68261386d565b91506147c18361386d565b9250827fffffffffffffffffffffffffffffffffffffffffffffffffffffffffffffffff038211156147f6576147f561477c565b5b828201905092915050565b7f4e6f207469656e6573207065726d69736f20706172612061636365646572206160008201527f206573746120696e666f726d6163696f6e000000000000000000000000000000602082015250565b600061485d6031836141a6565b915061486882614801565b604082019050919050565b6000602082019050818103600083015261488c81614850565b9050919050565b7f4e487b7100000000000000000000000000000000000000000000000000000000600052603260045260246000fd5b60006148cd8261386d565b91507fffffffffffffffffffffffffffffffffffffffffffffffffffffffffffffffff82036148ff576148fe61477c565b5b600182019050919050565b7f5f70726f647563746f496420696e6578697374656e7465000000000000000000600082015250565b60006149406017836141a6565b915061494b8261490a565b602082019050919050565b6000602082019050818103600083015261496f81614933565b9050919050565b7f466162726963616e7465207961206861206669726d61646f0000000000000000600082015250565b60006149ac6018836141a6565b91506149b782614976565b602082019050919050565b600060208201905081810360008301526149db8161499f565b9050919050565b7f456c206163756572646f206e6f206861207369646f206669726d61646f20706f60008201527f7220656c20666162726963616e74650000000000000000000000000000000000602082015250565b6000614a3e602f836141a6565b9150614a49826149e2565b604082019050919050565b60006020820190508181036000830152614a6d81614a31565b9050919050565b7f50756e746f56656e7461207961206861206669726d61646f0000000000000000600082015250565b6000614aaa6018836141a6565b9150614ab582614a74565b602082019050919050565b60006020820190508181036000830152614ad981614a9d565b9050919050565b7f5573746564206e6f207075656465206669726d6172206573746520616375657260008201527f646f000000000000000000000000000000000000000000000000000000000000602082015250565b6000614b3c6022836141a6565b9150614b4782614ae0565b604082019050919050565b60006020820190508181036000830152614b6b81614b2f565b9050919050565b7f45746828576569292064697374696e746f2064656c206d6f6e746f0000000000600082015250565b6000614ba8601b836141a6565b9150614bb382614b72565b602082019050919050565b60006020820190508181036000830152614bd781614b9b565b9050919050565b7f4e487b7100000000000000000000000000000000000000000000000000000000600052602260045260246000fd5b60006002820490506001821680614c2557607f821691505b602082108103614c3857614c37614bde565b5b50919050565b60008190508160005260206000209050919050565b60008154614c6081614c0d565b614c6a81866141a6565b94506001821660008114614c855760018114614c9757614cca565b60ff1983168652602086019350614cca565b614ca085614c3e565b60005b83811015614cc257815481890152600182019150602081019050614ca3565b808801955050505b50505092915050565b600060c0820190508181036000830152614ced8189614c53565b9050614cfc6020830188613da2565b614d096040830187613da2565b614d166060830186613da2565b614d236080830185614223565b614d3060a0830184614223565b979650505050505050565b60006060820190508181036000830152614d558186614c53565b9050614d646020830185614223565b614d716040830184614223565b949350505050565b7f536f6c6f20656c207472616e73706f727469737461206f20656c20666162726960008201527f63616e74652064656c206163756572646f2070756564656e206163636564657260208201527f2061206573746120696e666f726d6163696f6e00000000000000000000000000604082015250565b6000614dfb6053836141a6565b9150614e0682614d79565b606082019050919050565b60006020820190508181036000830152614e2a81614dee565b9050919050565b600081905092915050565b7f456c206163756572646f46616256656e746120636f6e20696400000000000000600082015250565b6000614e72601983614e31565b9150614e7d82614e3c565b601982019050919050565b6000614e938261419b565b614e9d8185614e31565b9350614ead8185602086016141b7565b80840191505092915050565b7f2079612066756520617369676e61646f2c20636f6e746163746520616c20666160008201527f62726963616e74652e0000000000000000000000000000000000000000000000602082015250565b6000614f15602983614e31565b9150614f2082614eb9565b602982019050919050565b6000614f3682614e65565b9150614f428284614e88565b9150614f4d82614f08565b915081905092915050565b60006020820190508181036000830152614f7281846141ea565b905092915050565b7f54726173706f727469737461207961206861206669726d61646f000000000000600082015250565b6000614fb0601a836141a6565b9150614fbb82614f7a565b602082019050919050565b60006020820190508181036000830152614fdf81614fa3565b9050919050565b7f456c206163756572646f206e6f206861207369646f206669726d61646f20706f60008201527f7220656c207472616e73706f7274697374610000000000000000000000000000602082015250565b60006150426032836141a6565b915061504d82614fe6565b604082019050919050565b6000602082019050818103600083015261507181615035565b9050919050565b7f4572726f723a2045746828576569292064697374696e746f2064656c206d6f6e60008201527f746f000000000000000000000000000000000000000000000000000000000000602082015250565b60006150d46022836141a6565b91506150df82615078565b604082019050919050565b60006020820190508181036000830152615103816150c7565b9050919050565b600081549050919050565b60008190508160005260206000209050919050565b60008160001c9050919050565b6000819050919050565b600061515461514f8361512a565b615137565b9050919050565b60006151678254615141565b9050919050565b6000600182019050919050565b60006151868261510a565b6151908185614021565b935061519b83615115565b8060005b838110156151d3576151b08261515b565b6151ba8882613c43565b97506151c58361516e565b92505060018101905061519f565b5085935050505092915050565b600060408201905081810360008301526151fa818561517b565b90506152096020830184613da2565b9392505050565b7f456c206d6f6e746f2064656c206163756572646f206465626520736572206d6160008201527f796f722061206365726f00000000000000000000000000000000000000000000602082015250565b600061526c602a836141a6565b915061527782615210565b604082019050919050565b6000602082019050818103600083015261529b8161525f565b9050919050565b600060e08201905081810360008301526152bc818a6141ea565b90506152cb6020830189613da2565b6152d86040830188613da2565b6152e56060830187613da2565b6152f26080830186614223565b6152ff60a0830185614223565b61530c60c0830184613da2565b98975050505050505050565b7f456c206d6f6e746f2064656c206163756572646f206465626520736572206d6160008201527f796f722061203000000000000000000000000000000000000000000000000000602082015250565b60006153746027836141a6565b915061537f82615318565b604082019050919050565b600060208201905081810360008301526153a381615367565b9050919050565b7f446562652070726f706f7263696f6e617220616c206d656e6f7320756e20616360008201527f756572646f46616256656e746149640000000000000000000000000000000000602082015250565b6000615406602f836141a6565b9150615411826153aa565b604082019050919050565b60006020820190508181036000830152615435816153f9565b9050919050565b7f206e6f2065786973746500000000000000000000000000000000000000000000600082015250565b6000615472600a83614e31565b915061547d8261543c565b600a82019050919050565b600061549382614e65565b915061549f8284614e88565b91506154aa82615465565b915081905092915050565b7f5573746564206e6f20657320656c20666162726963616e74652064656c20616360008201527f756572646f46616256656e746100000000000000000000000000000000000000602082015250565b6000615511602d83614e31565b915061551c826154b5565b602d82019050919050565b7f2000000000000000000000000000000000000000000000000000000000000000600082015250565b600061555d600183614e31565b915061556882615527565b600182019050919050565b600061557e82615504565b915061558a8284614e88565b915061559582615550565b915081905092915050565b7f206e6f206861207369646f206669726d61646f20706f7220616d62617320706160008201527f7274657300000000000000000000000000000000000000000000000000000000602082015250565b60006155fc602483614e31565b9150615607826155a0565b602482019050919050565b600061561d82614e65565b91506156298284614e88565b9150615634826155ef565b915081905092915050565b7f4e487b7100000000000000000000000000000000000000000000000000000000600052601260045260246000fdfea26469706673582212203ee14f0e7c9b2742c62cf006aab5d3943872f0caa8f3d2c3ea7989c209dff42264736f6c634300080e0033",
  "immutableReferences": {},
  "source": "// SPDX-License-Identifier: GPL-3.0\r\n\r\npragma solidity >=0.8.2 <0.9.0;\r\n\r\nimport \"@openzeppelin/contracts/utils/Strings.sol\";\r\n\r\ncontract CreacionCadena {\r\n    enum EstadoDelProducto { \r\n        Fabricado, \r\n        RecibidoPorTransportista, \r\n        RecibidoPorPuntoVenta, \r\n        Descartado \r\n    }\r\n\r\n    struct Producto {\r\n        uint id;\r\n        int16 ultimaTemperatura;\r\n        EstadoDelProducto estado;\r\n        address fabricante;\r\n        address puntoVenta;\r\n        address transportista;\r\n        uint fechaFabricacion;\r\n    }\r\n\r\n    struct AcuerdoFabVenta {\r\n        uint id;\r\n        string nombreProducto;\r\n        uint tipoProductoId;\r\n        address fabricante;\r\n        address puntoVenta;\r\n        uint cantidad;\r\n        uint monto;\r\n        int16 temperaturaMinima;\r\n        int16 temperaturaMaxima;\r\n        uint diasCaducidad;\r\n        bool firmadoFabricante;\r\n        bool firmadoPuntoVenta;\r\n    }\r\n\r\n    struct AcuerdoTransFab {\r\n        uint acuerdoTransFabId;\r\n        uint[] acuerdoFabVentaId;\r\n        address fabricante;\r\n        address transportista;\r\n        uint monto;\r\n        bool firmadoFabricante;\r\n        bool firmadoTransportista;\r\n    }\r\n\r\n    // Mapeo para relacionar el id nico del acuerdo entre fabricante y punto de venta con un struct AcuerdoFabVenta que contiene los detalles del acuerdo\r\n    mapping(uint => AcuerdoFabVenta) public acuerdos;\r\n    // Mapeo para relacionar el id nico del acuerdo entre fabricante y transportista con un struct  AcuerdoTransFab que contiene los detalles\r\n    mapping(uint => AcuerdoTransFab) public acuerdos2;\r\n    // Mapeo para asociar los productos a un acuerdo especfico. Utilizo dos claves para acceder a un producto en particular: el id del acuerdo y el id del producto\r\n    mapping(uint => mapping(uint => Producto)) public productosDelAcuerdo;\r\n\r\n    uint public contadorAcuerdos;\r\n    uint public contadorAcuerdos2;\r\n\r\n    /* Revisar si los eventos estan bien pensados asi o les sobran/faltan campos asi como sus indexed*/\r\n    // Eventos\r\n    event AcuerdoCreado(uint indexed id, string nombreProducto, uint tipoProductoId, address indexed fabricante, address indexed puntoVenta, uint cantidad, uint monto, int16 temperaturaMinima,\r\n        int16 temperaturaMaxima, uint diasCaducidad);\r\n    event AcuerdoFabVentaFirmado(uint indexed id, string nombreProducto, uint tipoProductoId, address indexed fabricante, address indexed puntoVenta, uint cantidad, uint monto, int16 temperaturaMinima,\r\n        int16 temperaturaMaxima);\r\n    event ProductoAgregado(uint indexed acuerdoId, uint indexed productoId, string nombreProducto, int16 temperaturaMinima, int16 temperaturaMaxima);\r\n    event AcuerdoTransFabFirmado(uint indexed acuerdoTransFabId, uint[] acuerdoFabVentaId, address indexed fabricante, address indexed transportista, uint monto);\r\n    event TransportistaDelProductoActualizado(uint indexed acuerdoId, uint indexed productoId, address indexed transportista);\r\n    //event EntregaCorrecta(uint indexed acuerdoId, bool indexed estadoCorrecto);\r\n    /* EVENTOS DEL OTRO CODIGO QUE AUN NO HICE EN ESTE */\r\n    //event TemperaturaComprometida(uint indexed productoId, string mensaje);\r\n    //event EstadoProducto(uint indexed id, EstadoDelProducto estado);\r\n\r\n    /* Esta funcion solo deberia poder ser usada por una lista de fabricantes aprobados */\r\n    // Funcin privada con la lgica para crear un acuerdo por parte del fabricante con el punto de venta\r\n    // diasCaducidad son los dias estipulados en el acuerdo que pueden pasar como maximo desde la fecha de fabricacion del producto hasta que se reciba sin que el producto se considere como caducado\r\n    function crearAcuerdo(string memory _nombreProducto, uint _tipoProductoId, address _puntoVenta, uint _cantidad, uint _monto, int16 _temperaturaMinima,\r\n        int16 _temperaturaMaxima, uint _diasCaducidad) private /*soloFabricante(contadorAcuerdos + 1)*/ {\r\n        /*Aqui habria que crear un require que exija que el _tipoProductoId sea un numero que esta dentro del catalogo del fabricante*/\r\n        require(_monto > 0, \"El monto del acuerdo debe ser mayor a cero\");\r\n\r\n        contadorAcuerdos++;\r\n        acuerdos[contadorAcuerdos] = AcuerdoFabVenta(contadorAcuerdos, _nombreProducto, _tipoProductoId, msg.sender, _puntoVenta, _cantidad, _monto, _temperaturaMinima, _temperaturaMaxima, _diasCaducidad, false, false);\r\n\r\n        emit AcuerdoCreado(contadorAcuerdos, _nombreProducto, _tipoProductoId, msg.sender, _puntoVenta, _cantidad, _monto, _temperaturaMinima, _temperaturaMaxima, _diasCaducidad);\r\n    }\r\n\r\n    // Creacion del acuerdo fabricante con punto de venta\r\n    function crearAcuerdoPuntoVenta(string memory _nombreProducto, uint _productoId, address _puntoVenta, uint _cantidad, uint _monto, int16 _temperaturaMinima,\r\n        int16 _temperaturaMaxima, uint _diasCaducidad) public {\r\n        crearAcuerdo(_nombreProducto, _productoId, _puntoVenta, _cantidad, _monto, _temperaturaMinima, _temperaturaMaxima, _diasCaducidad);\r\n    }\r\n    \r\n    // Funcion privada para crear un acuerdo entre fabricante y transportista para el envio de uno o mas acuerdos de fabricante con punto de venta\r\n    function crearAcuerdo2(uint[] memory _acuerdoFabVentaId, address _transportista, uint _monto) private {\r\n        require(_monto > 0, \"El monto del acuerdo debe ser mayor a 0\");\r\n        require(_acuerdoFabVentaId.length > 0, \"Debe proporcionar al menos un acuerdoFabVentaId\");\r\n\r\n        // Para cada acuerdoFabVenta que se quiera asignar al transportista se chequea primero una serie de condiciones\r\n        for (uint i = 0; i < _acuerdoFabVentaId.length; i++) {\r\n            require(_acuerdoFabVentaId[i] <= contadorAcuerdos, string(abi.encodePacked(\"El acuerdoFabVenta con id\", Strings.toString(_acuerdoFabVentaId[i]), \" no existe\")));\r\n            require(acuerdos[_acuerdoFabVentaId[i]].fabricante == msg.sender, string(abi.encodePacked(\"Usted no es el fabricante del acuerdoFabVenta\", Strings.toString(_acuerdoFabVentaId[i]), \" \")));\r\n            require(acuerdos[_acuerdoFabVentaId[i]].firmadoPuntoVenta == true && acuerdos[_acuerdoFabVentaId[i]].firmadoFabricante == true, string(abi.encodePacked(\"El acuerdoFabVenta con id\", Strings.toString(_acuerdoFabVentaId[i]), \" no ha sido firmado por ambas partes\")));\r\n        }\r\n\r\n        contadorAcuerdos2++;\r\n        acuerdos2[contadorAcuerdos2] = AcuerdoTransFab(contadorAcuerdos2, _acuerdoFabVentaId, msg.sender, _transportista, _monto, false, false);\r\n    }\r\n\r\n    // Creacion del acuerdo fabricante con el transportista\r\n    function crearAcuerdoTransportista(uint[] memory _acuerdoFabVentaId, address _transportista, uint _monto) public {\r\n        crearAcuerdo2(_acuerdoFabVentaId, _transportista, _monto);\r\n    }\r\n    \r\n    // Funcin para que el fabricante firme un acuerdo y despues el punto de venta\r\n    // Para optimizar el tamao del smart contract se evita la declaracin de variables en casos en que slo se vayan a usar para su lectura\r\n    function firmarAcuerdoFabVenta(uint _acuerdoId) public payable {\r\n        require(_acuerdoId <= contadorAcuerdos, \"El acuerdo no existe\");\r\n\r\n        if (msg.sender == acuerdos[_acuerdoId].fabricante) {\r\n            require(!acuerdos[_acuerdoId].firmadoFabricante, \"Fabricante ya ha firmado\");\r\n            acuerdos[_acuerdoId].firmadoFabricante = true;\r\n        } else if (msg.sender == acuerdos[_acuerdoId].puntoVenta) {\r\n            require(acuerdos[_acuerdoId].firmadoFabricante, \"El acuerdo no ha sido firmado por el fabricante\");\r\n            require(!acuerdos[_acuerdoId].firmadoPuntoVenta, \"PuntoVenta ya ha firmado\");\r\n            acuerdos[_acuerdoId].firmadoPuntoVenta = true;\r\n        } else {\r\n            revert(\"Usted no puede firmar este acuerdo\");\r\n        }\r\n\r\n        // Cuando ambos hayan firmado\r\n        if (acuerdos[_acuerdoId].firmadoFabricante && acuerdos[_acuerdoId].firmadoPuntoVenta) {\r\n            require(msg.value == acuerdos[_acuerdoId].monto, \"Eth(Wei) distinto del monto\");\r\n\r\n            // Punto de venta transfiere la cantidad de Ethereum(Wei) al fabricante\r\n            payable(acuerdos[_acuerdoId].fabricante).transfer(msg.value);\r\n\r\n            // Emitir el evento AcuerdoFirmado cuando ambos han firmado y se ha realizado la transferencia\r\n            emit AcuerdoFabVentaFirmado(_acuerdoId, acuerdos[_acuerdoId].nombreProducto, acuerdos[_acuerdoId].tipoProductoId, acuerdos[_acuerdoId].fabricante, acuerdos[_acuerdoId].puntoVenta, acuerdos[_acuerdoId].cantidad, acuerdos[_acuerdoId].monto, acuerdos[_acuerdoId].temperaturaMinima, acuerdos[_acuerdoId].temperaturaMaxima);\r\n            \r\n            // Creo los productos individuales que se corresponden al acuerdo\r\n            // ultimaTemperatura se inicializa con un valor especial de -999 para indicar que no est inicializada\r\n            for (uint i = 0; i < acuerdos[_acuerdoId].cantidad; i++) {\r\n                productosDelAcuerdo[_acuerdoId][i + 1] = Producto(\r\n                    i + 1,\r\n                    -999,\r\n                    EstadoDelProducto.Fabricado,\r\n                    acuerdos[_acuerdoId].fabricante,\r\n                    acuerdos[_acuerdoId].puntoVenta,\r\n                    address(0),\r\n                    block.timestamp\r\n                );\r\n                emit ProductoAgregado(_acuerdoId, i + 1, acuerdos[_acuerdoId].nombreProducto, acuerdos[_acuerdoId].temperaturaMinima, acuerdos[_acuerdoId].temperaturaMaxima);\r\n            }\r\n        }\r\n    }\r\n\r\n    // Funcion para ver si un acuerdoFabVenta esta asignado a un fabricante o aun se puede asignar (True = ya esta asginado)\r\n    function acuerdoFabVentaAsignado(uint _acuerdoId) public view returns (bool) {\r\n        return productosDelAcuerdo[_acuerdoId][1].transportista != address(0);\r\n    }\r\n\r\n    // Funcion para firmar el acuerdo entre fabricante y transportista, primero tiene que firmar el transportista\r\n    function firmarAcuerdoTransFab(uint _acuerdoTransFabId) public payable {\r\n        require(_acuerdoTransFabId <= contadorAcuerdos2, \"El acuerdo no existe\");\r\n        \r\n        // Chequeo que el acuerdo no haya sido ya asignado\r\n        for (uint i = 0; i < acuerdos2[_acuerdoTransFabId].acuerdoFabVentaId.length; i++){\r\n            require(!acuerdoFabVentaAsignado(acuerdos2[_acuerdoTransFabId].acuerdoFabVentaId[i]), \r\n            string(abi.encodePacked(\r\n                \"El acuerdoFabVenta con id\", Strings.toString(acuerdos2[_acuerdoTransFabId].acuerdoFabVentaId[i]), \" ya fue asignado, contacte al fabricante.\")));\r\n        }\r\n\r\n        if (msg.sender == acuerdos2[_acuerdoTransFabId].transportista) {\r\n            require(!acuerdos2[_acuerdoTransFabId].firmadoTransportista, \"Trasportista ya ha firmado\");\r\n            acuerdos2[_acuerdoTransFabId].firmadoTransportista = true;\r\n        } else if (msg.sender == acuerdos2[_acuerdoTransFabId].fabricante) {\r\n            require(acuerdos2[_acuerdoTransFabId].firmadoTransportista, \"El acuerdo no ha sido firmado por el transportista\");\r\n            require(!acuerdos2[_acuerdoTransFabId].firmadoFabricante, \"Fabricante ya ha firmado\");\r\n            acuerdos2[_acuerdoTransFabId].firmadoFabricante = true;\r\n        } else {\r\n            revert(\"Usted no puede firmar este acuerdo\");\r\n        }\r\n\r\n        if (acuerdos2[_acuerdoTransFabId].firmadoFabricante && acuerdos2[_acuerdoTransFabId].firmadoTransportista) {\r\n            require(msg.value == acuerdos2[_acuerdoTransFabId].monto, \"Error: Eth(Wei) distinto del monto\");\r\n\r\n            // Fabricante transfiere la cantidad de Ethereum(Wei) acordada al transportista\r\n            payable(acuerdos2[_acuerdoTransFabId].transportista).transfer(msg.value);\r\n\r\n            // Emitir el evento AcuerdoTransFabFirmado cuando ambos han firmado y se ha realizado la transferencia\r\n            emit AcuerdoTransFabFirmado(_acuerdoTransFabId, acuerdos2[_acuerdoTransFabId].acuerdoFabVentaId, acuerdos2[_acuerdoTransFabId].fabricante, acuerdos2[_acuerdoTransFabId].transportista, acuerdos2[_acuerdoTransFabId].monto);\r\n\r\n            // Dentro de cada acuerdoFabVenta que se le ha asignado al transportista del acuerdoTransFab, le pongo a cada producto de ese acuerdo quien es su transportista\r\n            for (uint i = 0; i < acuerdos2[_acuerdoTransFabId].acuerdoFabVentaId.length; i++) {\r\n                for (uint j = 0; j < acuerdos[acuerdos2[_acuerdoTransFabId].acuerdoFabVentaId[i]].cantidad; j++) {\r\n                    productosDelAcuerdo[acuerdos[acuerdos2[_acuerdoTransFabId].acuerdoFabVentaId[i]].id][j + 1].transportista = acuerdos2[_acuerdoTransFabId].transportista;\r\n                    // Evento para notificar la actualizacion de transportista de cada acuerdoFabVenta\r\n                    emit TransportistaDelProductoActualizado(acuerdos[acuerdos2[_acuerdoTransFabId].acuerdoFabVentaId[i]].id, j + 1, acuerdos2[_acuerdoTransFabId].transportista);\r\n                }\r\n            }\r\n        }\r\n    }\r\n\r\n    // Funcion para obtener un acuerdoFabVenta dado un id\r\n    function getAcuerdo(uint _acuerdoId) public view returns (AcuerdoFabVenta memory) {\r\n        require(_acuerdoId > 0 && _acuerdoId <= contadorAcuerdos, \"El acuerdo no existe\");\r\n        return acuerdos[_acuerdoId];\r\n    }\r\n\r\n    // Funcion para obtener un acuerdoTransFab dado un id\r\n    function getAcuerdoTransFab(uint _acuerdoTransFabId) public view returns (AcuerdoTransFab memory) {\r\n        require(_acuerdoTransFabId > 0 && _acuerdoTransFabId <= contadorAcuerdos2, \"El acuerdoTransFab no existe\");\r\n        return acuerdos2[_acuerdoTransFabId];\r\n    }\r\n\r\n    //!!!!!!!!!! ESTA YA ME SOBRA AHORA !!!!!!!!!\r\n    // Funcion para ver los acuerdosFabVenta asignados a un acuerdoTransFab\r\n    // Hice esta funcion porque en el entorno de pruebas de remix me sacaba todos los campos menos este, asi que con esta funcion chequeo que se asignaron bien\r\n    function verAcuerdosAsignados(uint _idAcuerdoTransFab) public view returns (uint[] memory) {\r\n        require(msg.sender == acuerdos2[_idAcuerdoTransFab].transportista || msg.sender == acuerdos2[_idAcuerdoTransFab].fabricante, \"Solo el transportista o el fabricante del acuerdo pueden acceder a esta informacion\");\r\n        return acuerdos2[_idAcuerdoTransFab].acuerdoFabVentaId;\r\n    }\r\n\r\n    // Funcion para ver la lista de productos pertenecientes a cada acuerdoFabVenta\r\n    function getProductosDelAcuerdo(uint _acuerdoId) public view returns (Producto[] memory) {\r\n        require(_acuerdoId <= contadorAcuerdos, \"El acuerdo no existe\");\r\n\r\n        Producto[] memory listaProductos = new Producto[](acuerdos[_acuerdoId].cantidad);\r\n\r\n        // Antes de revisar el contenido miro que el que quiere ver la informacion sea el fabricante, transportista o punto de venta del producto\r\n        // Lo miro en el for en vez de antes porque no tengo al transportista en el acuerdoFabVenta, solo a fabricante y punto de venta, no se si quiza seria mejor aadir un campo extra en el struct para esto\r\n        for (uint i = 0; i < acuerdos[_acuerdoId].cantidad; i++) {\r\n            require(msg.sender == productosDelAcuerdo[_acuerdoId][i + 1].fabricante || \r\n            msg.sender == productosDelAcuerdo[_acuerdoId][i + 1].transportista || \r\n            msg.sender == productosDelAcuerdo[_acuerdoId][i + 1].puntoVenta, \r\n            \"No tienes permiso para acceder a esta informacion\");\r\n            listaProductos[i] = productosDelAcuerdo[_acuerdoId][i + 1];\r\n        }\r\n\r\n        return listaProductos;\r\n    }\r\n\r\n    \r\n    // Funcion para ver un producto en concreto de un acuerdo\r\n    function getProductoDeUnAcuerdo(uint _acuerdoId, uint _productoId) public view returns(Producto memory) {\r\n        require(_acuerdoId <= contadorAcuerdos, \"El acuerdo no existe\");\r\n        require(_productoId <= acuerdos[_acuerdoId].cantidad, \"_productoId inexistente\");\r\n        return productosDelAcuerdo[_acuerdoId][_productoId];\r\n    }\r\n\r\n    // Funcion para cambiar el valor del campo temperatura del producto de un acuerdo\r\n    function setTemperatura(uint _acuerdoId, uint _productoId, int16 _nuevaTemperatura) public {\r\n        productosDelAcuerdo[_acuerdoId][_productoId].ultimaTemperatura = _nuevaTemperatura;\r\n    }\r\n\r\n    // Funcion para cambiar el estado del producto de un acuerdo\r\n    // He tenido que hacerlo con ints porque sino no me modificaba el estado cuando era llamada por los otros contratos \r\n    function setEstado(uint _acuerdoId, uint _productoId, uint8 _nuevoEstado) public {\r\n        if (_nuevoEstado == 0){\r\n            productosDelAcuerdo[_acuerdoId][_productoId].estado = EstadoDelProducto.Fabricado;\r\n        } else if (_nuevoEstado == 1) {\r\n            productosDelAcuerdo[_acuerdoId][_productoId].estado = EstadoDelProducto.RecibidoPorTransportista;\r\n        } else if (_nuevoEstado == 2) {\r\n            productosDelAcuerdo[_acuerdoId][_productoId].estado = EstadoDelProducto.RecibidoPorPuntoVenta;\r\n        } else if (_nuevoEstado == 3) {\r\n            productosDelAcuerdo[_acuerdoId][_productoId].estado = EstadoDelProducto.Descartado;\r\n        }\r\n    }\r\n\r\n    // Funcion para que un fabricante o punto de venta sepa el id de los acuerdos que tiene (esten o no firmados)\r\n    // Asi con esta funcion cuando se crea un acuerdo un fabricante o punto de venta puede ver que id tienen\r\n    function saberAcuerdosFabVenta() public view returns (uint[] memory) {\r\n        uint[] memory acuerdosInvolucrados;\r\n        uint count = 0;\r\n\r\n        // Recorrer todos los acuerdos\r\n        for (uint i = 1; i <= contadorAcuerdos; i++) {\r\n            // Verificar si el msg.sender est involucrado en el acuerdo como fabricante o punto de venta\r\n            if (acuerdos[i].fabricante == msg.sender || acuerdos[i].puntoVenta == msg.sender) {\r\n                // Aumentar el tamao del array acuerdosInvolucrados en 1 y asignar el nuevo valor\r\n                uint[] memory temp = new uint[](count + 1);\r\n                for (uint j = 0; j < count; j++) {\r\n                    temp[j] = acuerdosInvolucrados[j];\r\n                }\r\n                temp[count] = i;\r\n                acuerdosInvolucrados = temp;\r\n\r\n                count++;\r\n            }\r\n        }\r\n\r\n        return acuerdosInvolucrados;\r\n    }\r\n\r\n\r\n\r\n    // Funcion para que un fabricante o transportista sepa el id de los acuerdos que tiene (esten o no firmados)\r\n    // Asi con esta funcion cuando se crea un acuerdo un fabricante o punto de venta puede ver que id tienen\r\n    function saberAcuerdosTransFab() public view returns (uint[] memory) {\r\n        uint[] memory acuerdosInvolucrados;\r\n        uint count = 0;\r\n\r\n        // Recorrer todos los acuerdosTransFab\r\n        for (uint i = 1; i <= contadorAcuerdos2; i++) {\r\n            // Verificar si el msg.sender est involucrado en el acuerdo como fabricante o transportista\r\n            if (acuerdos2[i].fabricante == msg.sender || acuerdos2[i].transportista == msg.sender) {\r\n                // Aumentar el tamao del array acuerdosInvolucrados en 1 y asignar el nuevo valor\r\n                uint[] memory temp = new uint[](count + 1);\r\n                for (uint j = 0; j < count; j++) {\r\n                    temp[j] = acuerdosInvolucrados[j];\r\n                }\r\n                temp[count] = i;\r\n                acuerdosInvolucrados = temp;\r\n\r\n                count++;\r\n            }\r\n        }\r\n\r\n        return acuerdosInvolucrados;\r\n    }\r\n\r\n\r\n    /*\r\n    // Funcion que calcula cuantos productos se han descartado en un acuerdo\r\n    function cantidadProductosDescartados(uint _acuerdoId) public view returns (uint) {\r\n        require(_acuerdoId <= contadorAcuerdos, \"El acuerdo no existe\");\r\n        uint numDescartes = 0;\r\n        \r\n        for (uint i = 0; i < acuerdos[_acuerdoId].cantidad; i++) {\r\n            if (productosDelAcuerdo[_acuerdoId][i + 1].estado != EstadoDelProducto.RecibidoPorPuntoVenta) {\r\n                numDescartes++;  // Aado un nuevo producto descartado\r\n            }\r\n        }\r\n        return numDescartes;\r\n    }*/\r\n  \r\n}",
  "sourcePath": "C:\\Users\\alexk\\Desktop\\ColdChainProject\\frontend\\contracts\\CreacionCadena.sol",
  "compiler": {
    "name": "solc",
    "version": "0.8.14+commit.80d49f37.Emscripten.clang"
  },
  "schemaVersion": "3.4.14",
  "updatedAt": "2023-09-06T20:50:57.564Z",
  "networkType": "ethereum",
  "devdoc": {
    "kind": "dev",
    "methods": {},
    "version": 1
  },
  "userdoc": {
    "kind": "user",
    "methods": {},
    "version": 1
  }
}