{
  "contractName": "FinCadena",
  "abi": [
    {
      "inputs": [
        {
          "internalType": "address",
          "name": "_contratoAddress",
          "type": "address"
        }
      ],
      "stateMutability": "nonpayable",
      "type": "constructor"
    },
    {
      "inputs": [
        {
          "internalType": "uint256",
          "name": "_acuerdoId",
          "type": "uint256"
        }
      ],
      "name": "acuerdoFinPerfecto",
      "outputs": [
        {
          "internalType": "bool",
          "name": "",
          "type": "bool"
        }
      ],
      "stateMutability": "view",
      "type": "function",
      "constant": true
    },
    {
      "inputs": [
        {
          "internalType": "uint256",
          "name": "_acuerdoId",
          "type": "uint256"
        }
      ],
      "name": "acuerdoFinalizado",
      "outputs": [
        {
          "internalType": "bool",
          "name": "",
          "type": "bool"
        }
      ],
      "stateMutability": "view",
      "type": "function",
      "constant": true
    },
    {
      "inputs": [
        {
          "internalType": "uint256",
          "name": "_acuerdoId",
          "type": "uint256"
        }
      ],
      "name": "indemnizacion",
      "outputs": [
        {
          "internalType": "uint256",
          "name": "",
          "type": "uint256"
        }
      ],
      "stateMutability": "view",
      "type": "function",
      "constant": true
    },
    {
      "inputs": [
        {
          "internalType": "uint256",
          "name": "_acuerdoFabVentaId",
          "type": "uint256"
        }
      ],
      "name": "devolverDineroPuntoVenta",
      "outputs": [],
      "stateMutability": "payable",
      "type": "function",
      "payable": true
    },
    {
      "inputs": [
        {
          "internalType": "uint256",
          "name": "_acuerdoTransFabId",
          "type": "uint256"
        },
        {
          "internalType": "uint256",
          "name": "_acuerdoFabVentaId",
          "type": "uint256"
        }
      ],
      "name": "devolverDineroFabricante",
      "outputs": [],
      "stateMutability": "payable",
      "type": "function",
      "payable": true
    }
  ],
  "bytecode": "0x60806040523480156200001157600080fd5b5060405162002d4e38038062002d4e8339818101604052810190620000379190620000e8565b806000806101000a81548173ffffffffffffffffffffffffffffffffffffffff021916908373ffffffffffffffffffffffffffffffffffffffff160217905550506200011a565b600080fd5b600073ffffffffffffffffffffffffffffffffffffffff82169050919050565b6000620000b08262000083565b9050919050565b620000c281620000a3565b8114620000ce57600080fd5b50565b600081519050620000e281620000b7565b92915050565b6000602082840312156200010157620001006200007e565b5b60006200011184828501620000d1565b91505092915050565b612c24806200012a6000396000f3fe60806040526004361061004a5760003560e01c80630939e5fd1461004f57806334e8c2791461006b578063446c6f03146100a8578063bba9b2ae146100c4578063d6a2bafa14610101575b600080fd5b61006960048036038101906100649190611a6e565b61013e565b005b34801561007757600080fd5b50610092600480360381019061008d9190611aae565b6107c6565b60405161009f9190611af6565b60405180910390f35b6100c260048036038101906100bd9190611aae565b610a46565b005b3480156100d057600080fd5b506100eb60048036038101906100e69190611aae565b610fb5565b6040516100f89190611af6565b60405180910390f35b34801561010d57600080fd5b5061012860048036038101906101239190611aae565b611312565b6040516101359190611b20565b60405180910390f35b60008054906101000a900473ffffffffffffffffffffffffffffffffffffffff1673ffffffffffffffffffffffffffffffffffffffff16636b5676306040518163ffffffff1660e01b8152600401602060405180830381865afa1580156101a9573d6000803e3d6000fd5b505050506040513d601f19601f820116820180604052508101906101cd9190611b50565b82111561020f576040517f08c379a000000000000000000000000000000000000000000000000000000000815260040161020690611bda565b60405180910390fd5b60008054906101000a900473ffffffffffffffffffffffffffffffffffffffff1673ffffffffffffffffffffffffffffffffffffffff16633d28df836040518163ffffffff1660e01b8152600401602060405180830381865afa15801561027a573d6000803e3d6000fd5b505050506040513d601f19601f8201168201806040525081019061029e9190611b50565b8111156102e0576040517f08c379a00000000000000000000000000000000000000000000000000000000081526004016102d790611c46565b60405180910390fd5b60008054906101000a900473ffffffffffffffffffffffffffffffffffffffff1673ffffffffffffffffffffffffffffffffffffffff16632f8edc7a836040518263ffffffff1660e01b81526004016103399190611b20565b600060405180830381865afa158015610356573d6000803e3d6000fd5b505050506040513d6000823e3d601f19601f8201168201806040525081019061037f9190611f23565b6060015173ffffffffffffffffffffffffffffffffffffffff163373ffffffffffffffffffffffffffffffffffffffff16146103f0576040517f08c379a00000000000000000000000000000000000000000000000000000000081526004016103e790611fde565b60405180910390fd5b60008054906101000a900473ffffffffffffffffffffffffffffffffffffffff1673ffffffffffffffffffffffffffffffffffffffff16632f8edc7a836040518263ffffffff1660e01b81526004016104499190611b20565b600060405180830381865afa158015610466573d6000803e3d6000fd5b505050506040513d6000823e3d601f19601f8201168201806040525081019061048f9190611f23565b60a00151801561053e575060008054906101000a900473ffffffffffffffffffffffffffffffffffffffff1673ffffffffffffffffffffffffffffffffffffffff16632f8edc7a836040518263ffffffff1660e01b81526004016104f39190611b20565b600060405180830381865afa158015610510573d6000803e3d6000fd5b505050506040513d6000823e3d601f19601f820116820180604052508101906105399190611f23565b60c001515b61057d576040517f08c379a000000000000000000000000000000000000000000000000000000000815260040161057490612070565b60405180910390fd5b61058681610fb5565b6105c5576040517f08c379a00000000000000000000000000000000000000000000000000000000081526004016105bc90612102565b60405180910390fd5b6105ce816107c6565b1561060e576040517f08c379a000000000000000000000000000000000000000000000000000000000815260040161060590612194565b60405180910390fd5b6106188282611703565b610657576040517f08c379a000000000000000000000000000000000000000000000000000000000815260040161064e9061224c565b60405180910390fd5b600061066282611312565b905080341461067082611803565b60405160200161068091906123ca565b604051602081830303815290604052906106d0576040517f08c379a00000000000000000000000000000000000000000000000000000000081526004016106c79190612430565b60405180910390fd5b5060008060009054906101000a900473ffffffffffffffffffffffffffffffffffffffff1673ffffffffffffffffffffffffffffffffffffffff16632f8edc7a856040518263ffffffff1660e01b815260040161072d9190611b20565b600060405180830381865afa15801561074a573d6000803e3d6000fd5b505050506040513d6000823e3d601f19601f820116820180604052508101906107739190611f23565b6040015190508073ffffffffffffffffffffffffffffffffffffffff166108fc349081150290604051600060405180830381858888f193505050501580156107bf573d6000803e3d6000fd5b5050505050565b60008060009054906101000a900473ffffffffffffffffffffffffffffffffffffffff1673ffffffffffffffffffffffffffffffffffffffff16633d28df836040518163ffffffff1660e01b8152600401602060405180830381865afa158015610834573d6000803e3d6000fd5b505050506040513d601f19601f820116820180604052508101906108589190611b50565b82111561089a576040517f08c379a00000000000000000000000000000000000000000000000000000000081526004016108919061249e565b60405180910390fd5b60005b60008054906101000a900473ffffffffffffffffffffffffffffffffffffffff1673ffffffffffffffffffffffffffffffffffffffff1663f25684a3846040518263ffffffff1660e01b81526004016108f69190611b20565b600060405180830381865afa158015610913573d6000803e3d6000fd5b505050506040513d6000823e3d601f19601f8201168201806040525081019061093c91906126db565b60a00151811015610a3b576002600381111561095b5761095a612724565b5b60008054906101000a900473ffffffffffffffffffffffffffffffffffffffff1673ffffffffffffffffffffffffffffffffffffffff16635095bc5c856001856109a59190612782565b6040518363ffffffff1660e01b81526004016109c29291906127d8565b60e060405180830381865afa1580156109df573d6000803e3d6000fd5b505050506040513d601f19601f82011682018060405250810190610a0391906128da565b604001516003811115610a1957610a18612724565b5b14610a28576000915050610a41565b8080610a3390612907565b91505061089d565b50600190505b919050565b60008054906101000a900473ffffffffffffffffffffffffffffffffffffffff1673ffffffffffffffffffffffffffffffffffffffff16633d28df836040518163ffffffff1660e01b8152600401602060405180830381865afa158015610ab1573d6000803e3d6000fd5b505050506040513d601f19601f82011682018060405250810190610ad59190611b50565b811115610b17576040517f08c379a0000000000000000000000000000000000000000000000000000000008152600401610b0e9061249e565b60405180910390fd5b60008054906101000a900473ffffffffffffffffffffffffffffffffffffffff1673ffffffffffffffffffffffffffffffffffffffff1663f25684a3826040518263ffffffff1660e01b8152600401610b709190611b20565b600060405180830381865afa158015610b8d573d6000803e3d6000fd5b505050506040513d6000823e3d601f19601f82011682018060405250810190610bb691906126db565b6060015173ffffffffffffffffffffffffffffffffffffffff163373ffffffffffffffffffffffffffffffffffffffff1614610c27576040517f08c379a0000000000000000000000000000000000000000000000000000000008152600401610c1e906129c1565b60405180910390fd5b60008054906101000a900473ffffffffffffffffffffffffffffffffffffffff1673ffffffffffffffffffffffffffffffffffffffff1663f25684a3826040518263ffffffff1660e01b8152600401610c809190611b20565b600060405180830381865afa158015610c9d573d6000803e3d6000fd5b505050506040513d6000823e3d601f19601f82011682018060405250810190610cc691906126db565b61014001518015610d77575060008054906101000a900473ffffffffffffffffffffffffffffffffffffffff1673ffffffffffffffffffffffffffffffffffffffff1663f25684a3826040518263ffffffff1660e01b8152600401610d2b9190611b20565b600060405180830381865afa158015610d48573d6000803e3d6000fd5b505050506040513d6000823e3d601f19601f82011682018060405250810190610d7191906126db565b61016001515b610db6576040517f08c379a0000000000000000000000000000000000000000000000000000000008152600401610dad90612070565b60405180910390fd5b610dbf81610fb5565b610dfe576040517f08c379a0000000000000000000000000000000000000000000000000000000008152600401610df590612a53565b60405180910390fd5b610e07816107c6565b15610e47576040517f08c379a0000000000000000000000000000000000000000000000000000000008152600401610e3e90612ae5565b60405180910390fd5b6000610e5282611312565b9050803414610e6082611803565b604051602001610e7091906123ca565b60405160208183030381529060405290610ec0576040517f08c379a0000000000000000000000000000000000000000000000000000000008152600401610eb79190612430565b60405180910390fd5b5060008060009054906101000a900473ffffffffffffffffffffffffffffffffffffffff1673ffffffffffffffffffffffffffffffffffffffff1663f25684a3846040518263ffffffff1660e01b8152600401610f1d9190611b20565b600060405180830381865afa158015610f3a573d6000803e3d6000fd5b505050506040513d6000823e3d601f19601f82011682018060405250810190610f6391906126db565b6080015190508073ffffffffffffffffffffffffffffffffffffffff166108fc349081150290604051600060405180830381858888f19350505050158015610faf573d6000803e3d6000fd5b50505050565b60008060009054906101000a900473ffffffffffffffffffffffffffffffffffffffff1673ffffffffffffffffffffffffffffffffffffffff16633d28df836040518163ffffffff1660e01b8152600401602060405180830381865afa158015611023573d6000803e3d6000fd5b505050506040513d601f19601f820116820180604052508101906110479190611b50565b821115611089576040517f08c379a00000000000000000000000000000000000000000000000000000000081526004016110809061249e565b60405180910390fd5b60005b60008054906101000a900473ffffffffffffffffffffffffffffffffffffffff1673ffffffffffffffffffffffffffffffffffffffff1663f25684a3846040518263ffffffff1660e01b81526004016110e59190611b20565b600060405180830381865afa158015611102573d6000803e3d6000fd5b505050506040513d6000823e3d601f19601f8201168201806040525081019061112b91906126db565b60a00151811015611307576002600381111561114a57611149612724565b5b60008054906101000a900473ffffffffffffffffffffffffffffffffffffffff1673ffffffffffffffffffffffffffffffffffffffff16635095bc5c856001856111949190612782565b6040518363ffffffff1660e01b81526004016111b19291906127d8565b60e060405180830381865afa1580156111ce573d6000803e3d6000fd5b505050506040513d601f19601f820116820180604052508101906111f291906128da565b60400151600381111561120857611207612724565b5b141580156112e5575060038081111561122457611223612724565b5b60008054906101000a900473ffffffffffffffffffffffffffffffffffffffff1673ffffffffffffffffffffffffffffffffffffffff16635095bc5c8560018561126e9190612782565b6040518363ffffffff1660e01b815260040161128b9291906127d8565b60e060405180830381865afa1580156112a8573d6000803e3d6000fd5b505050506040513d601f19601f820116820180604052508101906112cc91906128da565b6040015160038111156112e2576112e1612724565b5b14155b156112f457600091505061130d565b80806112ff90612907565b91505061108c565b50600190505b919050565b60008060009054906101000a900473ffffffffffffffffffffffffffffffffffffffff1673ffffffffffffffffffffffffffffffffffffffff16633d28df836040518163ffffffff1660e01b8152600401602060405180830381865afa158015611380573d6000803e3d6000fd5b505050506040513d601f19601f820116820180604052508101906113a49190611b50565b8211156113e6576040517f08c379a00000000000000000000000000000000000000000000000000000000081526004016113dd9061249e565b60405180910390fd5b600080600160008054906101000a900473ffffffffffffffffffffffffffffffffffffffff1673ffffffffffffffffffffffffffffffffffffffff1663f25684a3866040518263ffffffff1660e01b81526004016114449190611b20565b600060405180830381865afa158015611461573d6000803e3d6000fd5b505050506040513d6000823e3d601f19601f8201168201806040525081019061148a91906126db565b60a0015160008054906101000a900473ffffffffffffffffffffffffffffffffffffffff1673ffffffffffffffffffffffffffffffffffffffff1663f25684a3876040518263ffffffff1660e01b81526004016114e79190611b20565b600060405180830381865afa158015611504573d6000803e3d6000fd5b505050506040513d6000823e3d601f19601f8201168201806040525081019061152d91906126db565b60c0015161153b9190612b34565b6115459190612782565b905060005b60008054906101000a900473ffffffffffffffffffffffffffffffffffffffff1673ffffffffffffffffffffffffffffffffffffffff1663f25684a3866040518263ffffffff1660e01b81526004016115a39190611b20565b600060405180830381865afa1580156115c0573d6000803e3d6000fd5b505050506040513d6000823e3d601f19601f820116820180604052508101906115e991906126db565b60a001518110156116ed576002600381111561160857611607612724565b5b60008054906101000a900473ffffffffffffffffffffffffffffffffffffffff1673ffffffffffffffffffffffffffffffffffffffff16635095bc5c876001856116529190612782565b6040518363ffffffff1660e01b815260040161166f9291906127d8565b60e060405180830381865afa15801561168c573d6000803e3d6000fd5b505050506040513d601f19601f820116820180604052508101906116b091906128da565b6040015160038111156116c6576116c5612724565b5b146116da5782806116d690612907565b9350505b80806116e590612907565b91505061154a565b5081816116fa9190612b65565b92505050919050565b60008060008054906101000a900473ffffffffffffffffffffffffffffffffffffffff1673ffffffffffffffffffffffffffffffffffffffff16632f8edc7a856040518263ffffffff1660e01b815260040161175f9190611b20565b600060405180830381865afa15801561177c573d6000803e3d6000fd5b505050506040513d6000823e3d601f19601f820116820180604052508101906117a59190611f23565b60200151905060005b81518110156117f657838282815181106117cb576117ca612bbf565b5b6020026020010151036117e3576001925050506117fd565b80806117ee90612907565b9150506117ae565b5060009150505b92915050565b606060006001611812846118d1565b01905060008167ffffffffffffffff81111561183157611830611c7c565b5b6040519080825280601f01601f1916602001820160405280156118635781602001600182028036833780820191505090505b509050600082602001820190505b6001156118c6578080600190039150507f3031323334353637383961626364656600000000000000000000000000000000600a86061a8153600a85816118ba576118b9612b05565b5b04945060008503611871575b819350505050919050565b600080600090507a184f03e93ff9f4daa797ed6e38ed64bf6a1f010000000000000000831061192f577a184f03e93ff9f4daa797ed6e38ed64bf6a1f010000000000000000838161192557611924612b05565b5b0492506040810190505b6d04ee2d6d415b85acef8100000000831061196c576d04ee2d6d415b85acef8100000000838161196257611961612b05565b5b0492506020810190505b662386f26fc10000831061199b57662386f26fc10000838161199157611990612b05565b5b0492506010810190505b6305f5e10083106119c4576305f5e10083816119ba576119b9612b05565b5b0492506008810190505b61271083106119e95761271083816119df576119de612b05565b5b0492506004810190505b60648310611a0c5760648381611a0257611a01612b05565b5b0492506002810190505b600a8310611a1b576001810190505b80915050919050565b6000604051905090565b600080fd5b600080fd5b6000819050919050565b611a4b81611a38565b8114611a5657600080fd5b50565b600081359050611a6881611a42565b92915050565b60008060408385031215611a8557611a84611a2e565b5b6000611a9385828601611a59565b9250506020611aa485828601611a59565b9150509250929050565b600060208284031215611ac457611ac3611a2e565b5b6000611ad284828501611a59565b91505092915050565b60008115159050919050565b611af081611adb565b82525050565b6000602082019050611b0b6000830184611ae7565b92915050565b611b1a81611a38565b82525050565b6000602082019050611b356000830184611b11565b92915050565b600081519050611b4a81611a42565b92915050565b600060208284031215611b6657611b65611a2e565b5b6000611b7484828501611b3b565b91505092915050565b600082825260208201905092915050565b7f456c206163756572646f5472616e73466162206e6f2065786973746500000000600082015250565b6000611bc4601c83611b7d565b9150611bcf82611b8e565b602082019050919050565b60006020820190508181036000830152611bf381611bb7565b9050919050565b7f456c206163756572646f46616276656e7461206e6f2065786973746500000000600082015250565b6000611c30601c83611b7d565b9150611c3b82611bfa565b602082019050919050565b60006020820190508181036000830152611c5f81611c23565b9050919050565b600080fd5b6000601f19601f8301169050919050565b7f4e487b7100000000000000000000000000000000000000000000000000000000600052604160045260246000fd5b611cb482611c6b565b810181811067ffffffffffffffff82111715611cd357611cd2611c7c565b5b80604052505050565b6000611ce6611a24565b9050611cf28282611cab565b919050565b600080fd5b600080fd5b600067ffffffffffffffff821115611d1c57611d1b611c7c565b5b602082029050602081019050919050565b600080fd5b6000611d45611d4084611d01565b611cdc565b90508083825260208201905060208402830185811115611d6857611d67611d2d565b5b835b81811015611d915780611d7d8882611b3b565b845260208401935050602081019050611d6a565b5050509392505050565b600082601f830112611db057611daf611cfc565b5b8151611dc0848260208601611d32565b91505092915050565b600073ffffffffffffffffffffffffffffffffffffffff82169050919050565b6000611df482611dc9565b9050919050565b611e0481611de9565b8114611e0f57600080fd5b50565b600081519050611e2181611dfb565b92915050565b611e3081611adb565b8114611e3b57600080fd5b50565b600081519050611e4d81611e27565b92915050565b600060e08284031215611e6957611e68611c66565b5b611e7360e0611cdc565b90506000611e8384828501611b3b565b600083015250602082015167ffffffffffffffff811115611ea757611ea6611cf7565b5b611eb384828501611d9b565b6020830152506040611ec784828501611e12565b6040830152506060611edb84828501611e12565b6060830152506080611eef84828501611b3b565b60808301525060a0611f0384828501611e3e565b60a08301525060c0611f1784828501611e3e565b60c08301525092915050565b600060208284031215611f3957611f38611a2e565b5b600082015167ffffffffffffffff811115611f5757611f56611a33565b5b611f6384828501611e53565b91505092915050565b7f5573746564206e6f20657320656c207472616e73706f7274697374612064652060008201527f65737465206163756572646f0000000000000000000000000000000000000000602082015250565b6000611fc8602c83611b7d565b9150611fd382611f6c565b604082019050919050565b60006020820190508181036000830152611ff781611fbb565b9050919050565b7f456c206163756572646f206e6f20667565206669726d61646f20706f7220616d60008201527f6261732070617274657300000000000000000000000000000000000000000000602082015250565b600061205a602a83611b7d565b915061206582611ffe565b604082019050919050565b600060208201905081810360008301526120898161204d565b9050919050565b7f456c206163756572646f46616256656e746120696e74726f64756369646f207460008201527f6f6461766961206573746120656e2070726f6365736f20646520656e76696f00602082015250565b60006120ec603f83611b7d565b91506120f782612090565b604082019050919050565b6000602082019050818103600083015261211b816120df565b9050919050565b7f456c206163756572646f46616256656e74612066696e616c697a6f2073696e2060008201527f696e636964656e63696173000000000000000000000000000000000000000000602082015250565b600061217e602b83611b7d565b915061218982612122565b604082019050919050565b600060208201905081810360008301526121ad81612171565b9050919050565b7f456c206163756572646f46616256656e746120696e74726f64756369646f206e60008201527f6f2070657274656e65636520612065737465206163756572646f5472616e734660208201527f6162000000000000000000000000000000000000000000000000000000000000604082015250565b6000612236604283611b7d565b9150612241826121b4565b606082019050919050565b6000602082019050818103600083015261226581612229565b9050919050565b600081905092915050565b7f4c612063616e74696461642064652045746820285765692920696e74726f647560008201527f63696461206e6f20636f696e6369646520636f6e206c61206465206c6120696e60208201527f64656d6e697a6163696f6e202800000000000000000000000000000000000000604082015250565b60006122f9604d8361226c565b915061230482612277565b604d82019050919050565b600081519050919050565b60005b8381101561233857808201518184015260208101905061231d565b83811115612347576000848401525b50505050565b60006123588261230f565b612362818561226c565b935061237281856020860161231a565b80840191505092915050565b7f2029000000000000000000000000000000000000000000000000000000000000600082015250565b60006123b460028361226c565b91506123bf8261237e565b600282019050919050565b60006123d5826122ec565b91506123e1828461234d565b91506123ec826123a7565b915081905092915050565b60006124028261230f565b61240c8185611b7d565b935061241c81856020860161231a565b61242581611c6b565b840191505092915050565b6000602082019050818103600083015261244a81846123f7565b905092915050565b7f456c206163756572646f206e6f20657869737465000000000000000000000000600082015250565b6000612488601483611b7d565b915061249382612452565b602082019050919050565b600060208201905081810360008301526124b78161247b565b9050919050565b600080fd5b600067ffffffffffffffff8211156124de576124dd611c7c565b5b6124e782611c6b565b9050602081019050919050565b6000612507612502846124c3565b611cdc565b905082815260208101848484011115612523576125226124be565b5b61252e84828561231a565b509392505050565b600082601f83011261254b5761254a611cfc565b5b815161255b8482602086016124f4565b91505092915050565b60008160010b9050919050565b61257a81612564565b811461258557600080fd5b50565b60008151905061259781612571565b92915050565b600061018082840312156125b4576125b3611c66565b5b6125bf610180611cdc565b905060006125cf84828501611b3b565b600083015250602082015167ffffffffffffffff8111156125f3576125f2611cf7565b5b6125ff84828501612536565b602083015250604061261384828501611b3b565b604083015250606061262784828501611e12565b606083015250608061263b84828501611e12565b60808301525060a061264f84828501611b3b565b60a08301525060c061266384828501611b3b565b60c08301525060e061267784828501612588565b60e08301525061010061268c84828501612588565b610100830152506101206126a284828501611b3b565b610120830152506101406126b884828501611e3e565b610140830152506101606126ce84828501611e3e565b6101608301525092915050565b6000602082840312156126f1576126f0611a2e565b5b600082015167ffffffffffffffff81111561270f5761270e611a33565b5b61271b8482850161259d565b91505092915050565b7f4e487b7100000000000000000000000000000000000000000000000000000000600052602160045260246000fd5b7f4e487b7100000000000000000000000000000000000000000000000000000000600052601160045260246000fd5b600061278d82611a38565b915061279883611a38565b9250827fffffffffffffffffffffffffffffffffffffffffffffffffffffffffffffffff038211156127cd576127cc612753565b5b828201905092915050565b60006040820190506127ed6000830185611b11565b6127fa6020830184611b11565b9392505050565b6004811061280e57600080fd5b50565b60008151905061282081612801565b92915050565b600060e0828403121561283c5761283b611c66565b5b61284660e0611cdc565b9050600061285684828501611b3b565b600083015250602061286a84828501612588565b602083015250604061287e84828501612811565b604083015250606061289284828501611e12565b60608301525060806128a684828501611e12565b60808301525060a06128ba84828501611e12565b60a08301525060c06128ce84828501611b3b565b60c08301525092915050565b600060e082840312156128f0576128ef611a2e565b5b60006128fe84828501612826565b91505092915050565b600061291282611a38565b91507fffffffffffffffffffffffffffffffffffffffffffffffffffffffffffffffff820361294457612943612753565b5b600182019050919050565b7f5573746564206e6f20657320656c20666162726963616e74652064652065737460008201527f65206163756572646f0000000000000000000000000000000000000000000000602082015250565b60006129ab602983611b7d565b91506129b68261294f565b604082019050919050565b600060208201905081810360008301526129da8161299e565b9050919050565b7f456c206163756572646f20696e74726f64756369646f20746f6461766961206560008201527f73746120656e2070726f6365736f20646520656e76696f000000000000000000602082015250565b6000612a3d603783611b7d565b9150612a48826129e1565b604082019050919050565b60006020820190508181036000830152612a6c81612a30565b9050919050565b7f456c206163756572646f2066696e616c697a6f2073696e20696e636964656e6360008201527f6961730000000000000000000000000000000000000000000000000000000000602082015250565b6000612acf602383611b7d565b9150612ada82612a73565b604082019050919050565b60006020820190508181036000830152612afe81612ac2565b9050919050565b7f4e487b7100000000000000000000000000000000000000000000000000000000600052601260045260246000fd5b6000612b3f82611a38565b9150612b4a83611a38565b925082612b5a57612b59612b05565b5b828204905092915050565b6000612b7082611a38565b9150612b7b83611a38565b9250817fffffffffffffffffffffffffffffffffffffffffffffffffffffffffffffffff0483118215151615612bb457612bb3612753565b5b828202905092915050565b7f4e487b7100000000000000000000000000000000000000000000000000000000600052603260045260246000fdfea26469706673582212200a1b3260c71c06ffe183c9aa5afb5a0504f3c1b444e72b96bf74fc1229e7a5b264736f6c634300080e0033",
  "immutableReferences": {},
  "source": "// SPDX-License-Identifier: GPL-3.0\r\n\r\npragma solidity >=0.8.2 <0.9.0;\r\n\r\nimport \"./CreacionCadena.sol\";\r\n\r\ncontract FinCadena {\r\n    CreacionCadena contrato; // Variable para acceder al contrato Contrato99\r\n\r\n    constructor(address _contratoAddress) {\r\n        contrato = CreacionCadena(_contratoAddress);\r\n    }\r\n\r\n\r\n    // Funcion para saber si todos los productos fueron entregados sin problemas\r\n    function acuerdoFinPerfecto(uint _acuerdoId) public view returns (bool) {\r\n        require(_acuerdoId <= contrato.contadorAcuerdos(), \"El acuerdo no existe\");\r\n\r\n        for (uint i = 0; i < contrato.getAcuerdo(_acuerdoId).cantidad; i++) {\r\n            if (contrato.getProductoDeUnAcuerdo(_acuerdoId, i + 1).estado != \r\n                CreacionCadena.EstadoDelProducto.RecibidoPorPuntoVenta) {\r\n                return false;  // Al menos un producto no est en el estado correcto\r\n            }\r\n        }\r\n        return true;  // Todos los productos estn en el estado correcto\r\n    }\r\n    \r\n    function acuerdoFinalizado(uint _acuerdoId) public view returns (bool) {\r\n        require(_acuerdoId <= contrato.contadorAcuerdos(), \"El acuerdo no existe\");\r\n\r\n        for (uint i = 0; i < contrato.getAcuerdo(_acuerdoId).cantidad; i++) {\r\n            if (contrato.getProductoDeUnAcuerdo(_acuerdoId, i + 1).estado != \r\n                CreacionCadena.EstadoDelProducto.RecibidoPorPuntoVenta && contrato.getProductoDeUnAcuerdo(_acuerdoId, i + 1).estado != CreacionCadena.EstadoDelProducto.Descartado) {\r\n                return false;\r\n            }    \r\n        }\r\n        return true;  // Todos los productos estn o descartados o recibidos por el punto de venta\r\n    }\r\n\r\n    // Funcion para calcular la indemnizacion\r\n    function indemnizacion(uint _acuerdoId) public view returns (uint) {\r\n        require(_acuerdoId <= contrato.contadorAcuerdos(), \"El acuerdo no existe\");\r\n        uint numDescartes = 0;\r\n        // Calculo cuanto se ha de pagar por unidad descartada\r\n        // Se devuelve la division entera de lo que vale cada unidad +1 Wei extra\r\n        uint penalizacionPorProducto =\r\n            (contrato.getAcuerdo(_acuerdoId).monto / contrato.getAcuerdo(_acuerdoId).cantidad) +\r\n            1;\r\n\r\n        for (uint i = 0; i < contrato.getAcuerdo(_acuerdoId).cantidad; i++) {\r\n            if (\r\n                contrato.getProductoDeUnAcuerdo(_acuerdoId, i + 1).estado !=\r\n                CreacionCadena.EstadoDelProducto.RecibidoPorPuntoVenta\r\n            ) {\r\n                numDescartes++; // Aado un nuevo producto descartado\r\n            }\r\n        }\r\n        return penalizacionPorProducto * numDescartes;\r\n    }\r\n\r\n    // Funcion para que el fabricante indemnice al punto de venta\r\n    function devolverDineroPuntoVenta(uint _acuerdoFabVentaId) public payable {\r\n        require(_acuerdoFabVentaId <= contrato.contadorAcuerdos(), \"El acuerdo no existe\");\r\n        require(\r\n            msg.sender == contrato.getAcuerdo(_acuerdoFabVentaId).fabricante,\r\n            \"Usted no es el fabricante de este acuerdo\"\r\n        );\r\n        require(\r\n            contrato.getAcuerdo(_acuerdoFabVentaId).firmadoFabricante &&contrato.getAcuerdo(_acuerdoFabVentaId).firmadoPuntoVenta,\r\n            \"El acuerdo no fue firmado por ambas partes\"\r\n        );\r\n        require(acuerdoFinalizado(_acuerdoFabVentaId), \"El acuerdo introducido todavia esta en proceso de envio\");\r\n        require(!acuerdoFinPerfecto(_acuerdoFabVentaId), \"El acuerdo finalizo sin incidencias\");\r\n\r\n        uint montoIndemnizacion = indemnizacion(_acuerdoFabVentaId);\r\n        require(\r\n            msg.value == montoIndemnizacion,\r\n            string(\r\n                abi.encodePacked(\r\n                    \"La cantidad de Eth (Wei) introducida no coincide con la de la indemnizacion (\",\r\n                    Strings.toString(montoIndemnizacion),\r\n                    \" )\"\r\n                )\r\n            )\r\n        );\r\n        address payable puntoVenta = payable(contrato.getAcuerdo(_acuerdoFabVentaId).puntoVenta);\r\n        puntoVenta.transfer(msg.value);\r\n    }\r\n\r\n    // Funcion para chequear que un transportista tiene asignado cierto acuerdoFabVentaId\r\n    function responsableAcuerdoFabVenta(uint _acuerdoTransFabId, uint _acuerdoFabVentaId)\r\n        private\r\n        view\r\n        returns (bool)\r\n    {\r\n        uint[] memory arrayFabVentaId = contrato.getAcuerdoTransFab(_acuerdoTransFabId).acuerdoFabVentaId;\r\n        // Chequeo todos los acuerdosFabVenta que tiene asignados y si esta incluido\r\n        for (uint i = 0; i < arrayFabVentaId.length; i++) {\r\n            if (arrayFabVentaId[i] == _acuerdoFabVentaId) {\r\n                return true;\r\n            }\r\n        }\r\n        return false;\r\n    }\r\n\r\n    // Funcion para que el transportista indemnice al fabricante\r\n    function devolverDineroFabricante(uint _acuerdoTransFabId, uint _acuerdoFabVentaId) public payable {\r\n        require(_acuerdoTransFabId <= contrato.contadorAcuerdos2(), \"El acuerdoTransFab no existe\");\r\n        require(_acuerdoFabVentaId <= contrato.contadorAcuerdos(), \"El acuerdoFabventa no existe\");\r\n        require(\r\n            msg.sender == contrato.getAcuerdoTransFab(_acuerdoTransFabId).transportista,\r\n            \"Usted no es el transportista de este acuerdo\"\r\n        );\r\n        require(\r\n            contrato.getAcuerdoTransFab(_acuerdoTransFabId).firmadoFabricante &&\r\n                contrato.getAcuerdoTransFab(_acuerdoTransFabId).firmadoTransportista,\r\n            \"El acuerdo no fue firmado por ambas partes\"\r\n        );\r\n        require(acuerdoFinalizado(_acuerdoFabVentaId), \"El acuerdoFabVenta introducido todavia esta en proceso de envio\");\r\n        require(!acuerdoFinPerfecto(_acuerdoFabVentaId), \"El acuerdoFabVenta finalizo sin incidencias\");\r\n        require(\r\n            responsableAcuerdoFabVenta(_acuerdoTransFabId, _acuerdoFabVentaId),\r\n            \"El acuerdoFabVenta introducido no pertenece a este acuerdoTransFab\"\r\n        );\r\n\r\n        uint montoIndemnizacion = indemnizacion(_acuerdoFabVentaId);\r\n        require(\r\n            msg.value == montoIndemnizacion,\r\n            string(\r\n                abi.encodePacked(\r\n                    \"La cantidad de Eth (Wei) introducida no coincide con la de la indemnizacion (\",\r\n                    Strings.toString(montoIndemnizacion),\r\n                    \" )\"\r\n                )\r\n            )\r\n        );\r\n        address payable fabricante = payable(contrato.getAcuerdoTransFab(_acuerdoTransFabId).fabricante);\r\n        fabricante.transfer(msg.value);\r\n    }\r\n\r\n    \r\n}\r\n",
  "sourcePath": "C:\\Users\\alexk\\Desktop\\ColdChainProject\\frontend\\contracts\\FinCadena.sol",
  "compiler": {
    "name": "solc",
    "version": "0.8.14+commit.80d49f37.Emscripten.clang"
  },
  "schemaVersion": "3.4.14",
  "updatedAt": "2023-09-06T20:50:57.620Z",
  "networkType": "ethereum",
  "devdoc": {
    "kind": "dev",
    "methods": {},
    "version": 1
  },
  "userdoc": {
    "kind": "user",
    "methods": {},
    "version": 1
  }
}