{
  "contractName": "GestionCadena",
  "abi": [
    {
      "inputs": [
        {
          "internalType": "address",
          "name": "_contratoAddress",
          "type": "address"
        }
      ],
      "stateMutability": "nonpayable",
      "type": "constructor"
    },
    {
      "anonymous": false,
      "inputs": [
        {
          "indexed": true,
          "internalType": "uint256",
          "name": "acuerdoId",
          "type": "uint256"
        },
        {
          "indexed": true,
          "internalType": "int16",
          "name": "ultimaTemperatura",
          "type": "int16"
        },
        {
          "indexed": false,
          "internalType": "bool",
          "name": "temperaturaCorrecta",
          "type": "bool"
        }
      ],
      "name": "TemperaturaActualizadaYChequeada",
      "type": "event"
    },
    {
      "inputs": [
        {
          "internalType": "uint256",
          "name": "_acuerdoId",
          "type": "uint256"
        },
        {
          "internalType": "uint256[]",
          "name": "_productoId",
          "type": "uint256[]"
        },
        {
          "internalType": "uint8",
          "name": "_estado",
          "type": "uint8"
        }
      ],
      "name": "cambiarEstadoProducto",
      "outputs": [],
      "stateMutability": "nonpayable",
      "type": "function"
    },
    {
      "inputs": [
        {
          "internalType": "uint256",
          "name": "_acuerdoId",
          "type": "uint256"
        },
        {
          "internalType": "uint8",
          "name": "_estado",
          "type": "uint8"
        }
      ],
      "name": "cambiarEstadoTodosLosProductos",
      "outputs": [],
      "stateMutability": "nonpayable",
      "type": "function"
    },
    {
      "inputs": [
        {
          "internalType": "uint256",
          "name": "_acuerdoId",
          "type": "uint256"
        },
        {
          "internalType": "int16",
          "name": "_ultimaTemperatura",
          "type": "int16"
        }
      ],
      "name": "actualizarYChequearTemperaturaTodos",
      "outputs": [],
      "stateMutability": "nonpayable",
      "type": "function"
    },
    {
      "inputs": [
        {
          "internalType": "uint256",
          "name": "_acuerdoId",
          "type": "uint256"
        },
        {
          "internalType": "int16",
          "name": "_ultimaTemperatura",
          "type": "int16"
        },
        {
          "internalType": "uint256[]",
          "name": "_productoId",
          "type": "uint256[]"
        }
      ],
      "name": "actualizarYChequearTemperatura",
      "outputs": [],
      "stateMutability": "nonpayable",
      "type": "function"
    }
  ],
  "bytecode": "0x60806040523480156200001157600080fd5b5060405162003678380380620036788339818101604052810190620000379190620000e8565b806000806101000a81548173ffffffffffffffffffffffffffffffffffffffff021916908373ffffffffffffffffffffffffffffffffffffffff160217905550506200011a565b600080fd5b600073ffffffffffffffffffffffffffffffffffffffff82169050919050565b6000620000b08262000083565b9050919050565b620000c281620000a3565b8114620000ce57600080fd5b50565b600081519050620000e281620000b7565b92915050565b6000602082840312156200010157620001006200007e565b5b60006200011184828501620000d1565b91505092915050565b61354e806200012a6000396000f3fe608060405234801561001057600080fd5b506004361061004c5760003560e01c806337783178146100515780634bdf69181461006d578063c5acdc5014610089578063d5c07fe0146100a5575b600080fd5b61006b60048036038101906100669190612342565b6100c1565b005b610087600480360381019061008291906123ea565b61047d565b005b6100a3600480360381019061009e9190612459565b610b56565b005b6100bf60048036038101906100ba9190612499565b610dae565b005b60008054906101000a900473ffffffffffffffffffffffffffffffffffffffff1673ffffffffffffffffffffffffffffffffffffffff16633d28df836040518163ffffffff1660e01b8152600401602060405180830381865afa15801561012c573d6000803e3d6000fd5b505050506040513d601f19601f8201168201806040525081019061015091906124ee565b831115610192576040517f08c379a000000000000000000000000000000000000000000000000000000000815260040161018990612578565b60405180910390fd5b60008054906101000a900473ffffffffffffffffffffffffffffffffffffffff1673ffffffffffffffffffffffffffffffffffffffff1663f25684a3846040518263ffffffff1660e01b81526004016101eb91906125a7565b600060405180830381865afa158015610208573d6000803e3d6000fd5b505050506040513d6000823e3d601f19601f82011682018060405250810190610231919061288e565b60a0015182511115610278576040517f08c379a000000000000000000000000000000000000000000000000000000000815260040161026f90612949565b60405180910390fd5b60005b825181101561047757600083828151811061029957610298612969565b5b6020026020010151905060008054906101000a900473ffffffffffffffffffffffffffffffffffffffff1673ffffffffffffffffffffffffffffffffffffffff1663f25684a3866040518263ffffffff1660e01b81526004016102fc91906125a7565b600060405180830381865afa158015610319573d6000803e3d6000fd5b505050506040513d6000823e3d601f19601f82011682018060405250810190610342919061288e565b60a0015181111561035282611323565b6040516020016103629190612a77565b604051602081830303815290604052906103b2576040517f08c379a00000000000000000000000000000000000000000000000000000000081526004016103a99190612add565b60405180910390fd5b506103be8582856113f1565b60008054906101000a900473ffffffffffffffffffffffffffffffffffffffff1673ffffffffffffffffffffffffffffffffffffffff1663c408db2a8683866040518463ffffffff1660e01b815260040161041b93929190612b0e565b600060405180830381600087803b15801561043557600080fd5b505af1158015610449573d6000803e3d6000fd5b5050505060028360ff1603610463576104628582611c43565b5b50808061046f90612b74565b91505061027b565b50505050565b60008054906101000a900473ffffffffffffffffffffffffffffffffffffffff1673ffffffffffffffffffffffffffffffffffffffff16633d28df836040518163ffffffff1660e01b8152600401602060405180830381865afa1580156104e8573d6000803e3d6000fd5b505050506040513d601f19601f8201168201806040525081019061050c91906124ee565b83111561054e576040517f08c379a000000000000000000000000000000000000000000000000000000000815260040161054590612578565b60405180910390fd5b60008054906101000a900473ffffffffffffffffffffffffffffffffffffffff1673ffffffffffffffffffffffffffffffffffffffff1663f25684a3846040518263ffffffff1660e01b81526004016105a791906125a7565b600060405180830381865afa1580156105c4573d6000803e3d6000fd5b505050506040513d6000823e3d601f19601f820116820180604052508101906105ed919061288e565b60a0015181511115610634576040517f08c379a000000000000000000000000000000000000000000000000000000000815260040161062b90612949565b60405180910390fd5b60005b8151811015610b5057600082828151811061065557610654612969565b5b6020026020010151905060008054906101000a900473ffffffffffffffffffffffffffffffffffffffff1673ffffffffffffffffffffffffffffffffffffffff1663f25684a3866040518263ffffffff1660e01b81526004016106b891906125a7565b600060405180830381865afa1580156106d5573d6000803e3d6000fd5b505050506040513d6000823e3d601f19601f820116820180604052508101906106fe919061288e565b60a0015181111561070e82611323565b60405160200161071e9190612a77565b6040516020818303038152906040529061076e576040517f08c379a00000000000000000000000000000000000000000000000000000000081526004016107659190612add565b60405180910390fd5b5060038081111561078257610781612bbc565b5b60008054906101000a900473ffffffffffffffffffffffffffffffffffffffff1673ffffffffffffffffffffffffffffffffffffffff16635095bc5c87846040518363ffffffff1660e01b81526004016107dd929190612beb565b60e060405180830381865afa1580156107fa573d6000803e3d6000fd5b505050506040513d601f19601f8201168201806040525081019061081e9190612ced565b60400151600381111561083457610833612bbc565b5b14610b3c5760008054906101000a900473ffffffffffffffffffffffffffffffffffffffff1673ffffffffffffffffffffffffffffffffffffffff16630e9749a68683876040518463ffffffff1660e01b815260040161089693929190612d29565b600060405180830381600087803b1580156108b057600080fd5b505af11580156108c4573d6000803e3d6000fd5b5050505060008054906101000a900473ffffffffffffffffffffffffffffffffffffffff1673ffffffffffffffffffffffffffffffffffffffff1663f25684a3866040518263ffffffff1660e01b815260040161092191906125a7565b600060405180830381865afa15801561093e573d6000803e3d6000fd5b505050506040513d6000823e3d601f19601f82011682018060405250810190610967919061288e565b610100015160010b8460010b1380610a26575060008054906101000a900473ffffffffffffffffffffffffffffffffffffffff1673ffffffffffffffffffffffffffffffffffffffff1663f25684a3866040518263ffffffff1660e01b81526004016109d391906125a7565b600060405180830381865afa1580156109f0573d6000803e3d6000fd5b505050506040513d6000823e3d601f19601f82011682018060405250810190610a19919061288e565b60e0015160010b8460010b125b15610afd5760008054906101000a900473ffffffffffffffffffffffffffffffffffffffff1673ffffffffffffffffffffffffffffffffffffffff1663c408db2a868360036040518463ffffffff1660e01b8152600401610a8993929190612da5565b600060405180830381600087803b158015610aa357600080fd5b505af1158015610ab7573d6000803e3d6000fd5b505050508360010b857f31e3be526ace1cfe1d5a2e7f9a0ef794ccdb9bd295526094c2676cdedb5ab36d6000604051610af09190612deb565b60405180910390a3610b3b565b8360010b857f31e3be526ace1cfe1d5a2e7f9a0ef794ccdb9bd295526094c2676cdedb5ab36d6001604051610b329190612deb565b60405180910390a35b5b508080610b4890612b74565b915050610637565b50505050565b60008054906101000a900473ffffffffffffffffffffffffffffffffffffffff1673ffffffffffffffffffffffffffffffffffffffff16633d28df836040518163ffffffff1660e01b8152600401602060405180830381865afa158015610bc1573d6000803e3d6000fd5b505050506040513d601f19601f82011682018060405250810190610be591906124ee565b821115610c27576040517f08c379a0000000000000000000000000000000000000000000000000000000008152600401610c1e90612578565b60405180910390fd5b60005b60008054906101000a900473ffffffffffffffffffffffffffffffffffffffff1673ffffffffffffffffffffffffffffffffffffffff1663f25684a3846040518263ffffffff1660e01b8152600401610c8391906125a7565b600060405180830381865afa158015610ca0573d6000803e3d6000fd5b505050506040513d6000823e3d601f19601f82011682018060405250810190610cc9919061288e565b60a00151811015610da9576000600182610ce39190612e06565b9050610cf08482856113f1565b60008054906101000a900473ffffffffffffffffffffffffffffffffffffffff1673ffffffffffffffffffffffffffffffffffffffff1663c408db2a8583866040518463ffffffff1660e01b8152600401610d4d93929190612b0e565b600060405180830381600087803b158015610d6757600080fd5b505af1158015610d7b573d6000803e3d6000fd5b5050505060028360ff1603610d9557610d948482611c43565b5b508080610da190612b74565b915050610c2a565b505050565b60008054906101000a900473ffffffffffffffffffffffffffffffffffffffff1673ffffffffffffffffffffffffffffffffffffffff16633d28df836040518163ffffffff1660e01b8152600401602060405180830381865afa158015610e19573d6000803e3d6000fd5b505050506040513d601f19601f82011682018060405250810190610e3d91906124ee565b821115610e7f576040517f08c379a0000000000000000000000000000000000000000000000000000000008152600401610e7690612578565b60405180910390fd5b60005b60008054906101000a900473ffffffffffffffffffffffffffffffffffffffff1673ffffffffffffffffffffffffffffffffffffffff1663f25684a3846040518263ffffffff1660e01b8152600401610edb91906125a7565b600060405180830381865afa158015610ef8573d6000803e3d6000fd5b505050506040513d6000823e3d601f19601f82011682018060405250810190610f21919061288e565b60a0015181101561131e576000600182610f3b9190612e06565b9050600380811115610f5057610f4f612bbc565b5b60008054906101000a900473ffffffffffffffffffffffffffffffffffffffff1673ffffffffffffffffffffffffffffffffffffffff16635095bc5c86846040518363ffffffff1660e01b8152600401610fab929190612beb565b60e060405180830381865afa158015610fc8573d6000803e3d6000fd5b505050506040513d601f19601f82011682018060405250810190610fec9190612ced565b60400151600381111561100257611001612bbc565b5b1461130a5760008054906101000a900473ffffffffffffffffffffffffffffffffffffffff1673ffffffffffffffffffffffffffffffffffffffff16630e9749a68583866040518463ffffffff1660e01b815260040161106493929190612d29565b600060405180830381600087803b15801561107e57600080fd5b505af1158015611092573d6000803e3d6000fd5b5050505060008054906101000a900473ffffffffffffffffffffffffffffffffffffffff1673ffffffffffffffffffffffffffffffffffffffff1663f25684a3856040518263ffffffff1660e01b81526004016110ef91906125a7565b600060405180830381865afa15801561110c573d6000803e3d6000fd5b505050506040513d6000823e3d601f19601f82011682018060405250810190611135919061288e565b610100015160010b8360010b13806111f4575060008054906101000a900473ffffffffffffffffffffffffffffffffffffffff1673ffffffffffffffffffffffffffffffffffffffff1663f25684a3856040518263ffffffff1660e01b81526004016111a191906125a7565b600060405180830381865afa1580156111be573d6000803e3d6000fd5b505050506040513d6000823e3d601f19601f820116820180604052508101906111e7919061288e565b60e0015160010b8360010b125b156112cb5760008054906101000a900473ffffffffffffffffffffffffffffffffffffffff1673ffffffffffffffffffffffffffffffffffffffff1663c408db2a858360036040518463ffffffff1660e01b815260040161125793929190612da5565b600060405180830381600087803b15801561127157600080fd5b505af1158015611285573d6000803e3d6000fd5b505050508260010b847f31e3be526ace1cfe1d5a2e7f9a0ef794ccdb9bd295526094c2676cdedb5ab36d60006040516112be9190612deb565b60405180910390a3611309565b8260010b847f31e3be526ace1cfe1d5a2e7f9a0ef794ccdb9bd295526094c2676cdedb5ab36d60016040516113009190612deb565b60405180910390a35b5b50808061131690612b74565b915050610e82565b505050565b60606000600161133284612013565b01905060008167ffffffffffffffff811115611351576113506121c6565b5b6040519080825280601f01601f1916602001820160405280156113835781602001600182028036833780820191505090505b509050600082602001820190505b6001156113e6578080600190039150507f3031323334353637383961626364656600000000000000000000000000000000600a86061a8153600a85816113da576113d9612e5c565b5b04945060008503611391575b819350505050919050565b6000821180156114a3575060008054906101000a900473ffffffffffffffffffffffffffffffffffffffff1673ffffffffffffffffffffffffffffffffffffffff1663f25684a3846040518263ffffffff1660e01b815260040161145591906125a7565b600060405180830381865afa158015611472573d6000803e3d6000fd5b505050506040513d6000823e3d601f19601f8201168201806040525081019061149b919061288e565b60a001518211155b826040516020016114b49190612f44565b60405160208183030381529060405290611504576040517f08c379a00000000000000000000000000000000000000000000000000000000081526004016114fb9190612add565b60405180910390fd5b5060008054906101000a900473ffffffffffffffffffffffffffffffffffffffff1673ffffffffffffffffffffffffffffffffffffffff16635095bc5c84846040518363ffffffff1660e01b8152600401611560929190612beb565b60e060405180830381865afa15801561157d573d6000803e3d6000fd5b505050506040513d601f19601f820116820180604052508101906115a19190612ced565b60a0015173ffffffffffffffffffffffffffffffffffffffff163373ffffffffffffffffffffffffffffffffffffffff1614806116a8575060008054906101000a900473ffffffffffffffffffffffffffffffffffffffff1673ffffffffffffffffffffffffffffffffffffffff16635095bc5c84846040518363ffffffff1660e01b8152600401611634929190612beb565b60e060405180830381865afa158015611651573d6000803e3d6000fd5b505050506040513d601f19601f820116820180604052508101906116759190612ced565b6080015173ffffffffffffffffffffffffffffffffffffffff163373ffffffffffffffffffffffffffffffffffffffff16145b6116e7576040517f08c379a00000000000000000000000000000000000000000000000000000000081526004016116de90612fe7565b60405180910390fd5b600060038111156116fb576116fa612bbc565b5b60008054906101000a900473ffffffffffffffffffffffffffffffffffffffff1673ffffffffffffffffffffffffffffffffffffffff16635095bc5c85856040518363ffffffff1660e01b8152600401611756929190612beb565b60e060405180830381865afa158015611773573d6000803e3d6000fd5b505050506040513d601f19601f820116820180604052508101906117979190612ced565b6040015160038111156117ad576117ac612bbc565b5b036119605760008054906101000a900473ffffffffffffffffffffffffffffffffffffffff1673ffffffffffffffffffffffffffffffffffffffff16635095bc5c84846040518363ffffffff1660e01b815260040161180d929190612beb565b60e060405180830381865afa15801561182a573d6000803e3d6000fd5b505050506040513d601f19601f8201168201806040525081019061184e9190612ced565b60a0015173ffffffffffffffffffffffffffffffffffffffff163373ffffffffffffffffffffffffffffffffffffffff161461188983611323565b60405160200161189991906130c5565b604051602081830303815290604052906118e9576040517f08c379a00000000000000000000000000000000000000000000000000000000081526004016118e09190612add565b60405180910390fd5b5060018160ff16146118fa83611323565b60405160200161190a91906131b0565b6040516020818303038152906040529061195a576040517f08c379a00000000000000000000000000000000000000000000000000000000081526004016119519190612add565b60405180910390fd5b50611c3e565b6001600381111561197457611973612bbc565b5b60008054906101000a900473ffffffffffffffffffffffffffffffffffffffff1673ffffffffffffffffffffffffffffffffffffffff16635095bc5c85856040518363ffffffff1660e01b81526004016119cf929190612beb565b60e060405180830381865afa1580156119ec573d6000803e3d6000fd5b505050506040513d601f19601f82011682018060405250810190611a109190612ced565b604001516003811115611a2657611a25612bbc565b5b03611bd95760008054906101000a900473ffffffffffffffffffffffffffffffffffffffff1673ffffffffffffffffffffffffffffffffffffffff16635095bc5c84846040518363ffffffff1660e01b8152600401611a86929190612beb565b60e060405180830381865afa158015611aa3573d6000803e3d6000fd5b505050506040513d601f19601f82011682018060405250810190611ac79190612ced565b6080015173ffffffffffffffffffffffffffffffffffffffff163373ffffffffffffffffffffffffffffffffffffffff1614611b0283611323565b604051602001611b129190613275565b60405160208183030381529060405290611b62576040517f08c379a0000000000000000000000000000000000000000000000000000000008152600401611b599190612add565b60405180910390fd5b5060028160ff1614611b7383611323565b604051602001611b839190613314565b60405160208183030381529060405290611bd3576040517f08c379a0000000000000000000000000000000000000000000000000000000008152600401611bca9190612add565b60405180910390fd5b50611c3d565b611be282611323565b604051602001611bf29190613425565b6040516020818303038152906040526040517f08c379a0000000000000000000000000000000000000000000000000000000008152600401611c349190612add565b60405180910390fd5b5b505050565b60008054906101000a900473ffffffffffffffffffffffffffffffffffffffff1673ffffffffffffffffffffffffffffffffffffffff16633d28df836040518163ffffffff1660e01b8152600401602060405180830381865afa158015611cae573d6000803e3d6000fd5b505050506040513d601f19601f82011682018060405250810190611cd291906124ee565b821115611d14576040517f08c379a0000000000000000000000000000000000000000000000000000000008152600401611d0b90612578565b60405180910390fd5b60008054906101000a900473ffffffffffffffffffffffffffffffffffffffff1673ffffffffffffffffffffffffffffffffffffffff1663f25684a3836040518263ffffffff1660e01b8152600401611d6d91906125a7565b600060405180830381865afa158015611d8a573d6000803e3d6000fd5b505050506040513d6000823e3d601f19601f82011682018060405250810190611db3919061288e565b60a00151811115611df9576040517f08c379a0000000000000000000000000000000000000000000000000000000008152600401611df09061349e565b60405180910390fd5b600042905060008060009054906101000a900473ffffffffffffffffffffffffffffffffffffffff1673ffffffffffffffffffffffffffffffffffffffff16635095bc5c85856040518363ffffffff1660e01b8152600401611e5c929190612beb565b60e060405180830381865afa158015611e79573d6000803e3d6000fd5b505050506040513d601f19601f82011682018060405250810190611e9d9190612ced565b60c00151603c80601860008054906101000a900473ffffffffffffffffffffffffffffffffffffffff1673ffffffffffffffffffffffffffffffffffffffff1663f25684a3896040518263ffffffff1660e01b8152600401611eff91906125a7565b600060405180830381865afa158015611f1c573d6000803e3d6000fd5b505050506040513d6000823e3d601f19601f82011682018060405250810190611f45919061288e565b6101200151611f5491906134be565b611f5e91906134be565b611f6891906134be565b611f729190612e06565b90508082111561200d5760008054906101000a900473ffffffffffffffffffffffffffffffffffffffff1673ffffffffffffffffffffffffffffffffffffffff1663c408db2a858560036040518463ffffffff1660e01b8152600401611fda93929190612da5565b600060405180830381600087803b158015611ff457600080fd5b505af1158015612008573d6000803e3d6000fd5b505050505b50505050565b600080600090507a184f03e93ff9f4daa797ed6e38ed64bf6a1f0100000000000000008310612071577a184f03e93ff9f4daa797ed6e38ed64bf6a1f010000000000000000838161206757612066612e5c565b5b0492506040810190505b6d04ee2d6d415b85acef810000000083106120ae576d04ee2d6d415b85acef810000000083816120a4576120a3612e5c565b5b0492506020810190505b662386f26fc1000083106120dd57662386f26fc1000083816120d3576120d2612e5c565b5b0492506010810190505b6305f5e1008310612106576305f5e10083816120fc576120fb612e5c565b5b0492506008810190505b612710831061212b57612710838161212157612120612e5c565b5b0492506004810190505b6064831061214e576064838161214457612143612e5c565b5b0492506002810190505b600a831061215d576001810190505b80915050919050565b6000604051905090565b600080fd5b600080fd5b6000819050919050565b61218d8161217a565b811461219857600080fd5b50565b6000813590506121aa81612184565b92915050565b600080fd5b6000601f19601f8301169050919050565b7f4e487b7100000000000000000000000000000000000000000000000000000000600052604160045260246000fd5b6121fe826121b5565b810181811067ffffffffffffffff8211171561221d5761221c6121c6565b5b80604052505050565b6000612230612166565b905061223c82826121f5565b919050565b600067ffffffffffffffff82111561225c5761225b6121c6565b5b602082029050602081019050919050565b600080fd5b600061228561228084612241565b612226565b905080838252602082019050602084028301858111156122a8576122a761226d565b5b835b818110156122d157806122bd888261219b565b8452602084019350506020810190506122aa565b5050509392505050565b600082601f8301126122f0576122ef6121b0565b5b8135612300848260208601612272565b91505092915050565b600060ff82169050919050565b61231f81612309565b811461232a57600080fd5b50565b60008135905061233c81612316565b92915050565b60008060006060848603121561235b5761235a612170565b5b60006123698682870161219b565b935050602084013567ffffffffffffffff81111561238a57612389612175565b5b612396868287016122db565b92505060406123a78682870161232d565b9150509250925092565b60008160010b9050919050565b6123c7816123b1565b81146123d257600080fd5b50565b6000813590506123e4816123be565b92915050565b60008060006060848603121561240357612402612170565b5b60006124118682870161219b565b9350506020612422868287016123d5565b925050604084013567ffffffffffffffff81111561244357612442612175565b5b61244f868287016122db565b9150509250925092565b600080604083850312156124705761246f612170565b5b600061247e8582860161219b565b925050602061248f8582860161232d565b9150509250929050565b600080604083850312156124b0576124af612170565b5b60006124be8582860161219b565b92505060206124cf858286016123d5565b9150509250929050565b6000815190506124e881612184565b92915050565b60006020828403121561250457612503612170565b5b6000612512848285016124d9565b91505092915050565b600082825260208201905092915050565b7f456c206163756572646f206e6f20657869737465000000000000000000000000600082015250565b600061256260148361251b565b915061256d8261252c565b602082019050919050565b6000602082019050818103600083015261259181612555565b9050919050565b6125a18161217a565b82525050565b60006020820190506125bc6000830184612598565b92915050565b600080fd5b600080fd5b600080fd5b600067ffffffffffffffff8211156125ec576125eb6121c6565b5b6125f5826121b5565b9050602081019050919050565b60005b83811015612620578082015181840152602081019050612605565b8381111561262f576000848401525b50505050565b6000612648612643846125d1565b612226565b905082815260208101848484011115612664576126636125cc565b5b61266f848285612602565b509392505050565b600082601f83011261268c5761268b6121b0565b5b815161269c848260208601612635565b91505092915050565b600073ffffffffffffffffffffffffffffffffffffffff82169050919050565b60006126d0826126a5565b9050919050565b6126e0816126c5565b81146126eb57600080fd5b50565b6000815190506126fd816126d7565b92915050565b600081519050612712816123be565b92915050565b60008115159050919050565b61272d81612718565b811461273857600080fd5b50565b60008151905061274a81612724565b92915050565b60006101808284031215612767576127666125c2565b5b612772610180612226565b90506000612782848285016124d9565b600083015250602082015167ffffffffffffffff8111156127a6576127a56125c7565b5b6127b284828501612677565b60208301525060406127c6848285016124d9565b60408301525060606127da848285016126ee565b60608301525060806127ee848285016126ee565b60808301525060a0612802848285016124d9565b60a08301525060c0612816848285016124d9565b60c08301525060e061282a84828501612703565b60e08301525061010061283f84828501612703565b61010083015250610120612855848285016124d9565b6101208301525061014061286b8482850161273b565b610140830152506101606128818482850161273b565b6101608301525092915050565b6000602082840312156128a4576128a3612170565b5b600082015167ffffffffffffffff8111156128c2576128c1612175565b5b6128ce84828501612750565b91505092915050565b7f48617320696e74726f64756369646f206d61732070726f647563746f7349642060008201527f6465206c6f7320717565206578697374656e20656e20656c206163756572646f602082015250565b600061293360408361251b565b915061293e826128d7565b604082019050919050565b6000602082019050818103600083015261296281612926565b9050919050565b7f4e487b7100000000000000000000000000000000000000000000000000000000600052603260045260246000fd5b600081905092915050565b7f456c2070726f647563746f20636f6e2069640000000000000000000000000000600082015250565b60006129d9601283612998565b91506129e4826129a3565b601282019050919050565b600081519050919050565b6000612a05826129ef565b612a0f8185612998565b9350612a1f818560208601612602565b80840191505092915050565b7f206e6f2065786973746520656e2065737465206163756572646f000000000000600082015250565b6000612a61601a83612998565b9150612a6c82612a2b565b601a82019050919050565b6000612a82826129cc565b9150612a8e82846129fa565b9150612a9982612a54565b915081905092915050565b6000612aaf826129ef565b612ab9818561251b565b9350612ac9818560208601612602565b612ad2816121b5565b840191505092915050565b60006020820190508181036000830152612af78184612aa4565b905092915050565b612b0881612309565b82525050565b6000606082019050612b236000830186612598565b612b306020830185612598565b612b3d6040830184612aff565b949350505050565b7f4e487b7100000000000000000000000000000000000000000000000000000000600052601160045260246000fd5b6000612b7f8261217a565b91507fffffffffffffffffffffffffffffffffffffffffffffffffffffffffffffffff8203612bb157612bb0612b45565b5b600182019050919050565b7f4e487b7100000000000000000000000000000000000000000000000000000000600052602160045260246000fd5b6000604082019050612c006000830185612598565b612c0d6020830184612598565b9392505050565b60048110612c2157600080fd5b50565b600081519050612c3381612c14565b92915050565b600060e08284031215612c4f57612c4e6125c2565b5b612c5960e0612226565b90506000612c69848285016124d9565b6000830152506020612c7d84828501612703565b6020830152506040612c9184828501612c24565b6040830152506060612ca5848285016126ee565b6060830152506080612cb9848285016126ee565b60808301525060a0612ccd848285016126ee565b60a08301525060c0612ce1848285016124d9565b60c08301525092915050565b600060e08284031215612d0357612d02612170565b5b6000612d1184828501612c39565b91505092915050565b612d23816123b1565b82525050565b6000606082019050612d3e6000830186612598565b612d4b6020830185612598565b612d586040830184612d1a565b949350505050565b6000819050919050565b6000819050919050565b6000612d8f612d8a612d8584612d60565b612d6a565b612309565b9050919050565b612d9f81612d74565b82525050565b6000606082019050612dba6000830186612598565b612dc76020830185612598565b612dd46040830184612d96565b949350505050565b612de581612718565b82525050565b6000602082019050612e006000830184612ddc565b92915050565b6000612e118261217a565b9150612e1c8361217a565b9250827fffffffffffffffffffffffffffffffffffffffffffffffffffffffffffffffff03821115612e5157612e50612b45565b5b828201905092915050565b7f4e487b7100000000000000000000000000000000000000000000000000000000600052601260045260246000fd5b7f456c2070726f647563746f200000000000000000000000000000000000000000600082015250565b6000612ec1600c83612998565b9150612ecc82612e8b565b600c82019050919050565b6000819050919050565b612ef2612eed8261217a565b612ed7565b82525050565b7f206e6f2065786973746500000000000000000000000000000000000000000000600082015250565b6000612f2e600a83612998565b9150612f3982612ef8565b600a82019050919050565b6000612f4f82612eb4565b9150612f5b8284612ee1565b602082019150612f6a82612f21565b915081905092915050565b7f4e6f20706f73656573207065726d69736f7320706172612063616d626961722060008201527f656c2065737461646f0000000000000000000000000000000000000000000000602082015250565b6000612fd160298361251b565b9150612fdc82612f75565b604082019050919050565b6000602082019050818103600083015261300081612fc4565b9050919050565b7f536f6c6f20656c207472616e73706f7274697374612070756564652063616d6260008201527f69617220656c2065737461646f2064656c2070726f647563746f000000000000602082015250565b6000613063603a83612998565b915061306e82613007565b603a82019050919050565b7f2061637475616c6d656e74650000000000000000000000000000000000000000600082015250565b60006130af600c83612998565b91506130ba82613079565b600c82019050919050565b60006130d082613056565b91506130dc82846129fa565b91506130e7826130a2565b915081905092915050565b7f4e6f207469656e6573207065726d69736f20706172612063616d62696172206560008201527f6c2065737461646f2064656c2070726f647563746f0000000000000000000000602082015250565b600061314e603583612998565b9150613159826130f2565b603582019050919050565b7f2061206573652065737461646f00000000000000000000000000000000000000600082015250565b600061319a600d83612998565b91506131a582613164565b600d82019050919050565b60006131bb82613141565b91506131c782846129fa565b91506131d28261318d565b915081905092915050565b7f536f6c6f20656c2070756e746f2064652076656e74612070756564652063616d60008201527f6269617220656c2065737461646f2064656c2070726f647563746f20636f6e2060208201527f6964000000000000000000000000000000000000000000000000000000000000604082015250565b600061325f604283612998565b915061326a826131dd565b604282019050919050565b600061328082613252565b915061328c82846129fa565b9150613297826130a2565b915081905092915050565b7f4e6f207469656e6573207065726d69736f20706172612063616d62696172206560008201527f6c2065737461646f2064656c2070726f647563746f20636f6e20696400000000602082015250565b60006132fe603c83612998565b9150613309826132a2565b603c82019050919050565b600061331f826132f1565b915061332b82846129fa565b91506133368261318d565b915081905092915050565b7f416363696f6e206e6f20646973706f6e69626c652c20656c2070726f6475637460008201527f6f20636f6e206964000000000000000000000000000000000000000000000000602082015250565b600061339d602883612998565b91506133a882613341565b602882019050919050565b7f206861207369646f20726563696269646f20706f7220656c2070756e746f206460008201527f652076656e7461206f206861207369646f206465736361727461646f00000000602082015250565b600061340f603c83612998565b915061341a826133b3565b603c82019050919050565b600061343082613390565b915061343c82846129fa565b915061344782613402565b915081905092915050565b7f5f70726f647563746f496420696e6578697374656e7465000000000000000000600082015250565b600061348860178361251b565b915061349382613452565b602082019050919050565b600060208201905081810360008301526134b78161347b565b9050919050565b60006134c98261217a565b91506134d48361217a565b9250817fffffffffffffffffffffffffffffffffffffffffffffffffffffffffffffffff048311821515161561350d5761350c612b45565b5b82820290509291505056fea2646970667358221220f16a052436c3c4a7d028707a48a3fff5c24d2538c3e0ff91a0316df8c8d1a3e264736f6c634300080e0033",
  "immutableReferences": {},
  "source": "// SPDX-License-Identifier: GPL-3.0\r\n\r\npragma solidity >=0.8.2 <0.9.0;\r\n\r\nimport \"./CreacionCadena.sol\";\r\nimport \"@openzeppelin/contracts/utils/Strings.sol\";\r\n\r\ncontract GestionCadena {\r\n    CreacionCadena contrato; // Variable para acceder al contrato CreacionCadena\r\n\r\n    event TemperaturaActualizadaYChequeada(uint indexed acuerdoId, int16 indexed ultimaTemperatura, bool temperaturaCorrecta);\r\n\r\n    constructor(address _contratoAddress) {\r\n        contrato = CreacionCadena(_contratoAddress);\r\n    }\r\n\r\n\r\n    // Funcion para verificar que un producto ha sido recibido en el tiempo estipulado\r\n    function verificarEntregaCorrecta(uint _acuerdoId, uint _productoId) private {\r\n        require(_acuerdoId <= contrato.contadorAcuerdos(), \"El acuerdo no existe\");\r\n        require(_productoId <= contrato.getAcuerdo(_acuerdoId).cantidad, \"_productoId inexistente\");\r\n\r\n        uint fechaRecepcion = block.timestamp;\r\n        // Calculo la fecha limite que hay para que no se considere un producto como caducado\r\n        uint fechaLimite = contrato.getAcuerdo(_acuerdoId).diasCaducidad * 24 * 60 * 60 + contrato.getProductoDeUnAcuerdo(_acuerdoId, _productoId).fechaFabricacion;\r\n\r\n        // Si la fecha de recepcion supera a la fecha limite estipulada se descarta el producto\r\n        if (fechaRecepcion > fechaLimite){\r\n            contrato.setEstado(_acuerdoId, _productoId, 3);\r\n        }\r\n    }\r\n\r\n\r\n    // Funcin auxiliar para verificar los permisos y el estado del producto\r\n    // El transportista solo ha de poder cambiar el estado cuando actualmente este sea \"Fabricado\" y solo\r\n    // puede cambiarlo a \"RecibidoPorTransportista\", el punto de venta solo ha de poder cambiar el estado\r\n    // cuando este sea \"RecibidoPorTransportista\" y solo puede cambiarlo al estado de \"RecibidoPorPuntoVenta\".\r\n    // Cuando un producto se descarta se hace automticamente al incumplir la temperatura as que no necesitamos\r\n    // que nadie lo cambie de forma manual y el fabricante no debera tener que cambiar nunca el estado.\r\n    function verificarPermisosEstadoProducto(uint _acuerdoId, uint _productoId, uint8 _estado) private view {\r\n        require(_productoId > 0 && _productoId <= contrato.getAcuerdo(_acuerdoId).cantidad, string(abi.encodePacked(\"El producto \", _productoId, \" no existe\")));\r\n        require(msg.sender == contrato.getProductoDeUnAcuerdo(_acuerdoId, _productoId).transportista || msg.sender == contrato.getProductoDeUnAcuerdo(_acuerdoId, _productoId).puntoVenta, \"No posees permisos para cambiar el estado\");\r\n\r\n        if (contrato.getProductoDeUnAcuerdo(_acuerdoId, _productoId).estado == CreacionCadena.EstadoDelProducto.Fabricado) {\r\n            require(msg.sender == contrato.getProductoDeUnAcuerdo(_acuerdoId, _productoId).transportista, string(abi.encodePacked(\"Solo el transportista puede cambiar el estado del producto\", Strings.toString(_productoId), \" actualmente\")));\r\n            require(_estado == 1, string(abi.encodePacked(\"No tienes permiso para cambiar el estado del producto\", Strings.toString(_productoId), \" a ese estado\")));\r\n        } else if (contrato.getProductoDeUnAcuerdo(_acuerdoId, _productoId).estado == CreacionCadena.EstadoDelProducto.RecibidoPorTransportista) {\r\n            require(msg.sender == contrato.getProductoDeUnAcuerdo(_acuerdoId, _productoId).puntoVenta, string(abi.encodePacked(\"Solo el punto de venta puede cambiar el estado del producto con id\",Strings.toString(_productoId), \" actualmente\")));\r\n            require(_estado == 2, string(abi.encodePacked(\"No tienes permiso para cambiar el estado del producto con id\", Strings.toString(_productoId), \" a ese estado\")));\r\n        } else {\r\n            revert(string(abi.encodePacked(\"Accion no disponible, el producto con id\", Strings.toString(_productoId), \" ha sido recibido por el punto de venta o ha sido descartado\")));\r\n        }\r\n    }\r\n\r\n    // Funcion para cambiar el estado de uno o varios productos de un acuerdo\r\n    function cambiarEstadoProducto(uint _acuerdoId, uint[] memory _productoId, uint8 _estado) public {\r\n        require(_acuerdoId <= contrato.contadorAcuerdos(), \"El acuerdo no existe\");\r\n        require(_productoId.length <= contrato.getAcuerdo(_acuerdoId).cantidad, \"Has introducido mas productosId de los que existen en el acuerdo\");\r\n\r\n        // Para cada producto del array de ids de productos verifico que pueda cambiar el estado y cambio al nuevo estado\r\n        for (uint i = 0; i < _productoId.length; i++) {\r\n            uint productoId = _productoId[i];\r\n            require(productoId <= contrato.getAcuerdo(_acuerdoId).cantidad, string(abi.encodePacked(\"El producto con id\", Strings.toString(productoId), \" no existe en este acuerdo\")));\r\n\r\n            verificarPermisosEstadoProducto(_acuerdoId, productoId, _estado);\r\n            contrato.setEstado(_acuerdoId, productoId, _estado);\r\n            // Chequeo que si el punto de venta ha recibido el producto (y terminado la cadena) se verifique que ha sido en la fecha estipulada\r\n            if (_estado == 2) {\r\n                verificarEntregaCorrecta(_acuerdoId, productoId);\r\n            }\r\n        }\r\n    }\r\n    \r\n    // Funcion para cambiar directamente todos los productos de un acuerdo\r\n    function cambiarEstadoTodosLosProductos(uint _acuerdoId, uint8 _estado) public {\r\n        require(_acuerdoId <= contrato.contadorAcuerdos(), \"El acuerdo no existe\");\r\n\r\n        // Logica semejante al de la anterior funcion pero para todos los productos de un acuerdo\r\n        for (uint i = 0; i < contrato.getAcuerdo(_acuerdoId).cantidad; i++) {\r\n            uint productoId = i + 1;\r\n\r\n            verificarPermisosEstadoProducto(_acuerdoId, productoId, _estado);\r\n            contrato.setEstado(_acuerdoId, productoId, _estado);\r\n            // Chequeo que si el punto de venta ha recibido el producto (y terminado la cadena) se verifique que ha sido en la fecha estipulada\r\n            if (_estado == 2) {\r\n                verificarEntregaCorrecta(_acuerdoId, productoId);\r\n            }\r\n        }\r\n    }\r\n    \r\n    // Funcion para actualizar la temperatura de los productos de un acuerdo y ver si esta en el rango\r\n    function actualizarYChequearTemperaturaTodos(uint _acuerdoId, int16 _ultimaTemperatura) public {\r\n        require(_acuerdoId <= contrato.contadorAcuerdos(), \"El acuerdo no existe\");\r\n\r\n        for (uint i = 0; i < contrato.getAcuerdo(_acuerdoId).cantidad; i++) {\r\n            uint productoId = i + 1;\r\n            \r\n            // Se actualiza la temperatura y se chequea el estado solo si no ha sido ya descartado\r\n            if (contrato.getProductoDeUnAcuerdo(_acuerdoId, productoId).estado != CreacionCadena.EstadoDelProducto.Descartado){\r\n                contrato.setTemperatura(_acuerdoId, productoId, _ultimaTemperatura);\r\n                // Si la temperatura esta fuera del rango permitido se descarta el producto\r\n                if (_ultimaTemperatura > contrato.getAcuerdo(_acuerdoId).temperaturaMaxima || _ultimaTemperatura < contrato.getAcuerdo(_acuerdoId).temperaturaMinima){\r\n                    //Se descarta\r\n                    contrato.setEstado(_acuerdoId, productoId, 3);\r\n                    emit TemperaturaActualizadaYChequeada(_acuerdoId, _ultimaTemperatura, false);\r\n                } else {\r\n                    emit TemperaturaActualizadaYChequeada(_acuerdoId, _ultimaTemperatura, true);\r\n                }   \r\n            }\r\n        }\r\n    }\r\n\r\n    // Funcion para actualizar la temperatura de uno o mas productos y ver si esta en el rango permitido\r\n    function actualizarYChequearTemperatura(uint _acuerdoId, int16 _ultimaTemperatura, uint[] memory _productoId) public {\r\n        require(_acuerdoId <= contrato.contadorAcuerdos(), \"El acuerdo no existe\");\r\n        require(_productoId.length <= contrato.getAcuerdo(_acuerdoId).cantidad, \"Has introducido mas productosId de los que existen en el acuerdo\");\r\n\r\n        for (uint i = 0; i < _productoId.length; i++) {\r\n            uint productoId = _productoId[i];\r\n            require(productoId <= contrato.getAcuerdo(_acuerdoId).cantidad, string(abi.encodePacked(\"El producto con id\", Strings.toString(productoId), \" no existe en este acuerdo\")));\r\n\r\n            if (contrato.getProductoDeUnAcuerdo(_acuerdoId, productoId).estado != CreacionCadena.EstadoDelProducto.Descartado){\r\n                contrato.setTemperatura(_acuerdoId, productoId, _ultimaTemperatura);\r\n                // Si la temperatura esta fuera del rango permitido se descarta el producto\r\n                if (_ultimaTemperatura > contrato.getAcuerdo(_acuerdoId).temperaturaMaxima || _ultimaTemperatura < contrato.getAcuerdo(_acuerdoId).temperaturaMinima){\r\n                    contrato.setEstado(_acuerdoId, productoId, 3);\r\n                    emit TemperaturaActualizadaYChequeada(_acuerdoId, _ultimaTemperatura, false);\r\n                } else {\r\n                    emit TemperaturaActualizadaYChequeada(_acuerdoId, _ultimaTemperatura, true);\r\n                }\r\n            }\r\n            \r\n        }\r\n    }\r\n\r\n}",
  "sourcePath": "C:\\Users\\alexk\\Desktop\\ColdChainProject\\frontend\\contracts\\GestionCadena.sol",
  "compiler": {
    "name": "solc",
    "version": "0.8.14+commit.80d49f37.Emscripten.clang"
  },
  "schemaVersion": "3.4.14",
  "updatedAt": "2023-09-06T20:50:57.600Z",
  "networkType": "ethereum",
  "devdoc": {
    "kind": "dev",
    "methods": {},
    "version": 1
  },
  "userdoc": {
    "kind": "user",
    "methods": {},
    "version": 1
  }
}